:020000040800F2
:1000000000500020F91A0008C1190008CD19000895
:10001000D3190008D9190008DF19000800000000F2
:10002000000000000000000000000000E5190008CA
:10003000F119000800000000FD190008091A000865
:10004000411B0008411B0008411B0008411B000820
:10005000411B0008411B0008411B0008411B000810
:10006000411B0008411B0008411B0008411B000800
:10007000411B0008411B0008411B0008411B0008F0
:10008000411B0008411B0008411B0008411B0008E0
:10009000411B0008411B0008411B0008411B0008D0
:1000A000411B0008411B0008411B0008411B0008C0
:1000B000151A0008411B0008411B0008411B0008DD
:1000C000411B0008411B0008411B0008411B0008A0
:1000D000411B0008411B0008411B0008411B000890
:1000E000291A0008411B0008411B000800000000FD
:1000F0000000000000000000000000000000000000
:0C01000000000000000000005FF808F1A3
:1001100010B5054C237833B9044B13B10448AFF341
:1001200000800123237010BD80000020000000002B
:10013000E447000808B5034B1BB103490348AFF37C
:10014000008008BD0000000084000020E447000893
:1001500081F0004102E000BF83F0004330B54FEA78
:1001600041044FEA430594EA050F08BF90EA020FE5
:100170001FBF54EA000C55EA020C7FEA645C7FEA78
:10018000655C00F0E2804FEA5454D4EB5555B8BF9B
:100190006D420CDD2C4480EA020281EA030382EA0C
:1001A000000083EA010180EA020281EA0303362D9E
:1001B00088BF30BD11F0004F4FEA01314FF4801C71
:1001C0004CEA113102D0404261EB410113F0004F83
:1001D0004FEA03334CEA133302D0524263EB43033A
:1001E00094EA050F00F0A780A4F10104D5F1200ED8
:1001F0000DDB02FA0EFC22FA05F2801841F1000133
:1002000003FA0EF2801843FA05F359410EE0A5F106
:1002100020050EF1200E012A03FA0EFC28BF4CF037
:10022000020C43FA05F3C01851EBE37101F00045ED
:1002300007D54FF0000EDCF1000C7EEB00006EEBFA
:100240000101B1F5801F1BD3B1F5001F0CD3490884
:100250005FEA30004FEA3C0C04F101044FEA4452DB
:1002600012F5800F80F09A80BCF1004F08BF5FEA62
:10027000500C50F1000041EB045141EA050130BD42
:100280005FEA4C0C404141EB010111F4801FA4F1E5
:100290000104E9D191F0000F04BF01460020B1FA3A
:1002A00081F308BF2033A3F10B03B3F120020CDA72
:1002B0000C3208DD02F1140CC2F10C0201FA0CF050
:1002C00021FA02F10CE002F11402D8BFC2F1200CB5
:1002D00001FA02F120FA0CFCDCBF41EA0C0190406B
:1002E000E41AA2BF01EB0451294330BD6FEA0404B4
:1002F0001F3C1CDA0C340EDC04F11404C4F120029F
:1003000020FA04F001FA02F340EA030021FA04F3B0
:1003100045EA030130BDC4F10C04C4F1200220FA07
:1003200002F001FA04F340EA0300294630BD21FA45
:1003300004F0294630BD94F0000F83F4801306BF0B
:1003400081F480110134013D4EE77FEA645C18BFFF
:100350007FEA655C29D094EA050F08BF90EA020F96
:1003600005D054EA000C04BF1946104630BD91EA8E
:10037000030F1EBF0021002030BD5FEA545C05D191
:100380004000494128BF41F0004130BD14F58004D0
:100390003CBF01F5801130BD01F0004545F0FE4144
:1003A00041F470014FF0000030BD7FEA645C1ABF79
:1003B000194610467FEA655C1CBF0B46024650EAB0
:1003C000013406BF52EA033591EA030F41F40021DC
:1003D00030BD00BF90F0000F04BF0021704730B562
:1003E0004FF4806404F132044FF000054FF0000137
:1003F00050E700BF90F0000F04BF0021704730B5F8
:100400004FF4806404F1320410F0004548BF4042CC
:100410004FF000013EE700BF42004FEAE2014FEA21
:1004200031014FEA02701FBF12F07F4393F07F4FFC
:1004300081F06051704732F07F4208BF704793F0FF
:100440007F4F04BF41F40021704730B54FF4607412
:1004500001F0004521F000411CE700BF50EA010215
:1004600008BF704730B54FF000050AE050EA0102BE
:1004700008BF704730B511F0004502D5404261EB2E
:1004800041014FF4806404F132045FEA915C3FF46F
:10049000D8AE4FF003025FEADC0C18BF03325FEA0C
:1004A000DC0C18BF033202EBDC02C2F1200300FABD
:1004B00003FC20FA02F001FA03FE40EA0E0021FAE2
:1004C00002F11444BDE600BF70B54FF0FF0C4CF4D0
:1004D000E06C1CEA11541DBF1CEA135594EA0C0F82
:1004E00095EA0C0F00F0DEF82C4481EA030621EABD
:1004F0004C5123EA4C5350EA013518BF52EA0335F8
:1005000041F4801143F4801338D0A0FB02CE4FF0A9
:100510000005E1FB02E506F00042E0FB03E54FF0D9
:100520000006E1FB03569CF0000F18BF4EF0010ED1
:10053000A4F1FF04B6F5007F64F5407404D25FEACD
:100540004E0E6D4146EB060642EAC62141EA555180
:100550004FEAC52040EA5E504FEACE2EB4F1FD0CC2
:1005600088BFBCF5E06F1ED8BEF1004F08BF5FEA40
:10057000500E50F1000041EB045170BD06F00046F2
:1005800046EA010140EA020081EA0301B4EB5C049F
:10059000C2BFD4EB0C0541EA045170BD41F4801197
:1005A0004FF0000E013C00F3AB8014F1360FDEBFBC
:1005B000002001F0004170BDC4F10004203C35DA98
:1005C0000C341BDC04F11404C4F1200500FA05F31B
:1005D00020FA04F001FA05F240EA020001F00042BC
:1005E00021F0004110EBD37021FA04F642EB060132
:1005F0005EEA430E08BF20EAD37070BDC4F10C045C
:10060000C4F1200500FA04F320FA05F001FA04F21F
:1006100040EA020001F0004110EBD37041F100010B
:100620005EEA430E08BF20EAD37070BDC4F1200516
:1006300000FA05F24EEA020E20FA04F301FA05F27E
:1006400043EA020321FA04F001F0004121FA04F226
:1006500020EA020000EBD3705EEA430E08BF20EAF6
:10066000D37070BD94F0000F0FD101F00046400030
:1006700041EB010111F4801F08BF013CF7D041EAB2
:10068000060195F0000F18BF704703F000465200B6
:1006900043EB030313F4801F08BF013DF7D043EA87
:1006A0000603704794EA0C0F0CEA135518BF95EA3D
:1006B0000C0F0CD050EA410618BF52EA4306D1D1C4
:1006C00081EA030101F000414FF0000070BD50EAE3
:1006D000410606BF1046194652EA430619D094EA6D
:1006E0000C0F02D150EA013613D195EA0C0F05D157
:1006F00052EA03361CBF104619460AD181EA0301AB
:1007000001F0004141F0FE4141F470014FF0000062
:1007100070BD41F0FE4141F4780170BD70B54FF0FD
:10072000FF0C4CF4E06C1CEA11541DBF1CEA13557D
:1007300094EA0C0F95EA0C0F00F0A7F8A4EB05045F
:1007400081EA030E52EA03354FEA013100F0888056
:100750004FEA03334FF0805545EA131343EA12631F
:100760004FEA022245EA111545EA10654FEA0026D4
:100770000EF000419D4208BF964244F1FD0404F58D
:10078000407402D25B084FEA3202B61A65EB0305E9
:100790005B084FEA32024FF480104FF4002CB6EBA6
:1007A000020E75EB030E22BFB61A754640EA0C0026
:1007B0005B084FEA3202B6EB020E75EB030E22BF66
:1007C000B61A754640EA5C005B084FEA3202B6EBA7
:1007D000020E75EB030E22BFB61A754640EA9C0066
:1007E0005B084FEA3202B6EB020E75EB030E22BF36
:1007F000B61A754640EADC0055EA060E18D04FEAF4
:10080000051545EA16754FEA06164FEAC30343EA93
:1008100052734FEAC2025FEA1C1CC0D111F4801F60
:100820000BD141EA00014FF000004FF0004CB6E759
:1008300011F4801F04BF01430020B4F1FD0C88BFF8
:10084000BCF5E06F3FF6AFAEB5EB030C04BFB6EB03
:10085000020C5FEA500C50F1000041EB045170BDF6
:100860000EF0004E4EEA113114EB5C04C2BFD4EB23
:100870000C0541EA045170BD41F480114FF0000EA7
:10088000013C90E645EA060E8DE60CEA135594EA23
:100890000C0F08BF95EA0C0F3FF43BAF94EA0C0F26
:1008A0000AD150EA01347FF434AF95EA0C0F7FF49B
:1008B00025AF104619462CE795EA0C0F06D152EAEF
:1008C00003353FF4FDAE1046194622E750EA4106D3
:1008D00018BF52EA43067FF4C5AE50EA41047FF4E4
:1008E0000DAF52EA43057FF4EBAE12E74A0011D296
:1008F00012F5001211D20DD56FF47873B3EB62527A
:100900000ED44FEAC12343F0004343EA505323FA85
:1009100002F070474FF00000704750EA013002D1FA
:100920004FF0FF3070474FF00000704780F00040FC
:1009300002E000BF81F0004142001FBF5FEA4103B7
:1009400092EA030F7FEA226C7FEA236C6AD04FEAB7
:100950001262D2EB1363C1BFD218414048404140FC
:10096000B8BF5B42192B88BF704710F0004F40F4AE
:10097000000020F07F4018BF404211F0004F41F4CA
:10098000000121F07F4118BF494292EA030F3FD096
:10099000A2F1010241FA03FC10EB0C00C3F12003A9
:1009A00001FA03F100F0004302D5494260EB400038
:1009B000B0F5000F13D3B0F1807F06D340084FEAA3
:1009C000310102F10102FE2A51D2B1F1004F40EB98
:1009D000C25008BF20F0010040EA03007047490000
:1009E00040EB000010F4000FA2F10102EDD1B0FACB
:1009F00080FCACF1080CB2EB0C0200FA0CF0AABFC0
:100A000000EBC25052421843BCBFD040184370475D
:100A100092F0000F81F4000106BF80F40000013263
:100A2000013BB5E74FEA41037FEA226C18BF7FEA3A
:100A3000236C21D092EA030F04D092F0000F08BF7C
:100A40000846704790EA010F1CBF0020704712F063
:100A50007F4F04D1400028BF40F00040704712F1A2
:100A600000723CBF00F50000704700F0004343F007
:100A7000FE4040F4000070477FEA226216BF08463D
:100A80007FEA23630146420206BF5FEA412390EA00
:100A9000010F40F4800070474FF0000304E000BFF6
:100AA00010F0004348BF40425FEA000C08BF7047A7
:100AB00043F0964301464FF000001CE050EA01026B
:100AC00008BF70474FF000030AE000BF50EA010280
:100AD00008BF704711F0004302D5404261EB41016D
:100AE0005FEA010C02BF84460146002043F0B64392
:100AF00008BFA3F18053A3F50003BCFA8CF2083AB7
:100B0000A3EBC25310DB01FA02FC634400FA02FCBF
:100B1000C2F12002BCF1004F20FA02F243EB0200C6
:100B200008BF20F00100704702F1200201FA02FC28
:100B3000C2F1200250EA4C0021FA02F243EB02001B
:100B400008BF20EADC70704780B586B004AF03466A
:100B5000FB800B46BB8013467B80BA88F9884FF434
:100B6000FA73029301230193BB1C009301230348F2
:100B700001F05CFC00BF0837BD4680BDB00000201E
:100B800080B582B000AF0346FB71FB799BB21A4679
:100B900000217820FFF7D8FF00BF0837BD4680BD91
:100BA00080B584B000AF78600B46FB700023FB601B
:100BB0000023FB600CE0FB687A6813441B789BB24F
:100BC0001A4640217820FFF7BFFFFB680133FB6026
:100BD000FB78FA689A42EEDB00BF1037BD4680BD55
:100BE00080B485B000AF0346FB710023FB600DE0CD
:100BF000FB79002B01D1002100E0FF21084AFB68AE
:100C000013440A461A70FB680133FB60FB68B3F5B6
:100C1000806FEDD300BF1437BD4680BC704700BF66
:100C20005001002080B582B000AF0023FB7116E0B8
:100C3000FB79503BDBB21846FFF7A2FF0020FFF71D
:100C40009FFF1020FFF79CFFFB79DB01074A13444D
:100C500080211846FFF7A4FFFB790133FB71FB7974
:100C6000072BE5D900BF0837BD4680BD50010020E5
:100C700080B582B000AF78607B68184600F0C4FF92
:100C800000BF0837BD4680BD80B500AF6420FFF7C8
:100C9000EFFFAE20FFF774FF2020FFF771FF002069
:100CA000FFF76EFFB020FFF76BFFC820FFF768FF6C
:100CB0000020FFF765FF1020FFF762FF4020FFF7DD
:100CC0005FFF8120FFF75CFFFF20FFF759FFA120A6
:100CD000FFF756FFA620FFF753FFA820FFF750FFAE
:100CE0003F20FFF74DFFA420FFF74AFFD320FFF777
:100CF00047FF0020FFF744FFD520FFF741FFF0201A
:100D0000FFF73EFFD920FFF73BFF2220FFF738FF18
:100D1000DA20FFF735FF1220FFF732FFDB20FFF765
:100D20002FFF2020FFF72CFF8D20FFF729FF142035
:100D3000FFF726FFAF20FFF723FF0020FFF750FF4C
:100D4000FFF770FF054B00221A60044B00225A6027
:100D5000024B01225A7200BF80BD00BF0401002077
:100D600080B483B000AF0346FB710B46BB711346E2
:100D70007B7197F90730002B48DBBB793F2B45D8B7
:100D8000254B1B7A002B06D07B79002B0CBF01234F
:100D90000023DBB27B717B79012B1AD1FA79BB7905
:100DA000DB08D8B20346DB0113441C4AD35C5AB2B9
:100DB000BB7903F00703012101FA03F35BB213438C
:100DC00059B2FA790346DB011344C9B2134AD1542C
:100DD0001DE0FA79BB79DB08D8B20346DB01134486
:100DE0000E4AD35C5AB2BB7903F00703012101FA22
:100DF00003F35BB2DB435BB2134059B2FA790346AB
:100E0000DB011344C9B2054AD15400E000BF0C37DE
:100E1000BD4680BC704700BF040100205001002087
:100E200080B483B000AF03460A46FB711346BB7122
:100E3000FB79054A1360BB79034A536000BF0C3746
:100E4000BD4680BC704700BF0401002080B500AFE4
:100E50000020FFF7C5FE00210020FFF7E1FF00BFE3
:100E600080BD000090B589B000AF0446381D80E811
:100E700006001A462346FB731346BB73FB7B1F2BEE
:100E800002D9FB7B7E2B01D9002382E0434B1B68F8
:100E90003A791344802B05D8404B5B687A79134428
:100EA000402B1AD93D4B1B683A791344802B12D939
:100EB0003A4B5B687A7913443F2B0AD8374B5B680F
:100EC000DAB27B791344DBB219460020FFF7A8FFA2
:100ED00001E0FFF7BBFF00235BE00023FB614CE078
:100EE000BA68FB7B203B797901FB03F31946FB6968
:100EF0000B449B0013441B687B610023BB6134E0FF
:100F00007A69BB6902FA03F303F40043002B12D0A1
:100F1000224B1B68DAB2BB69DBB21344D8B21F4B59
:100F20005B68DAB2FB69DBB21344DBB2BA7B194609
:100F3000FFF716FF16E0194B1B68DAB2BB69DBB28C
:100F40001344D8B2154B5B68DAB2FB69DBB21344C9
:100F5000D9B2BB7B002B0CBF01230023DBB21A46A6
:100F6000FFF7FEFEBB690133BB613B791A46BB69E3
:100F70009342C5D3FB690133FB617B791A46FB6958
:100F80009342ADD3054B1B683A791344034A13606F
:100F9000FB7B18462437BD4690BD00BF04010020EE
:100FA00080B584B000AFF860381D80E80600FB70A3
:100FB00012E0FB681878FB783A1D06CAFFF752FF6B
:100FC00003461A46FB681B789A4202D0FB681B78DE
:100FD00008E0FB680133FB60FB681B78002BE8D15D
:100FE000FB681B7818461037BD4680BD80B59EB0A3
:100FF00000AFF860381D80E80600FB7007F11403AD
:10100000FA680749184602F0DBFFFB7807F1140085
:101010003A1D06CAFFF7C4FF00BF7837BD4680BD42
:10102000FC47000880B584B000AFF8607A601A46CB
:101030000B467B8113463B8100221021094801F0B9
:1010400084F807F10A014FF448730122F86802F0AE
:1010500060F901221021034801F077F800BF103732
:10106000BD4680BD0008014080B582B000AF034698
:10107000FB80F9880123044A0448FFF7D3FF00BF2F
:101080000837BD4680BD00BF000C01405005002060
:1010900090B585B000AF03463960FB710023FB605B
:1010A000FB79002B04D14FF40050FFF7DDFF16E071
:1010B000FB79012B04D142F20200FFF7D5FF0EE0CD
:1010C000FB79022B04D142F22800FFF7CDFF06E0A6
:1010D000FB79032B03D142F22000FFF7C5FF3868EC
:1010E000FFF7DAFC03461846FFF796F914A3D3E995
:1010F0000023FFF7E9F903460C4618462146FFF79F
:10110000F5FB03463B603B68FB60FB689BB2C3F3A7
:101110000D039BB243F480439BB21846FFF7A4FF34
:10112000FB689B0B9BB243F480439BB21846FFF7CE
:101130009BFF00BF1437BD4690BD00BFAFF30080DA
:101140003A8C30E28E79254080B500AF00F0FAFC91
:1011500000F094F800F0D8F900F0CCF800F0F8F8BE
:1011600000F02EF900F084F9FFF78EFD0020FFF764
:1011700037FD364A012306CA3548FFF711FFFFF74E
:1011800051FD344802F0ACFA3C21334802F059FBDF
:10119000324B5B6A1A46324B1A60314B1B68642231
:1011A00002FB03F32E4A13600E210020FFF738FEE6
:1011B000264A012306CA2B48FFF7F2FE2A4B1B687A
:1011C0001846224A012306CAFFF710FF1F4A0123CF
:1011D00006CA2648FFF7E4FE17210020FFF720FE8D
:1011E0001A4A012306CA2248FFF7DAFE1C4B1B6885
:1011F0001846164A012306CAFFF7F8FE134A0123D0
:1012000006CA1A48FFF7CCFE1E210020FFF708FE91
:101210000E4A012306CA1748FFF7C2FE164B1B7879
:1012200018460A4A012306CAFFF7E0FE074A0123CF
:1012300006CA0E48FFF7B4FEFFF7F4FC084B1B6824
:1012400019460020FFF724FFA2E700BF000000209E
:1012500000480008A805002010010020002C0140D3
:101260000C00002010480008080000201848000862
:10127000244800082C4800089C00002080B590B04D
:1012800000AF07F1180328220021184602F090FE53
:101290003B1D00221A605A609A60DA601A610223CC
:1012A000BB610123BB621023FB6200237B6307F158
:1012B0001803184601F0C4FB0346002B01D000F0D0
:1012C00067FA0F237B600023BB600023FB604FF4B1
:1012D00080633B6100237B613B1D0021184601F0C8
:1012E0002FFE0346002B01D000F052FA00BF40371A
:1012F000BD4680BD80B500AF124B134A1A60114B3A
:10130000124A5A600F4B00229A600E4B0022DA609C
:101310000C4B4FF480421A610A4B00225A61094B70
:1013200000229A61074B0022DA61064B00221A6202
:10133000044800F053FF0346002B01D000F028FAC8
:1013400000BF80BDB000002000540040A086010016
:1013500080B500AF184B194A1A60174B4FF48272D0
:101360005A60154B00229A60134B4FF40062DA600A
:10137000114B02221A61104B00225A610E4B4FF49E
:1013800000729A610C4B3022DA610B4B00221A6218
:10139000094B00225A62084B00229A62064B0A222D
:1013A000DA62054801F054FF0346002B01D000F03B
:1013B000EFF900BF80BD00BF5005002000300140A4
:1013C00080B58CB000AF07F10C0324220021184631
:1013D00002F0EEFD3B1D00221A605A60224B234AA8
:1013E0001A60214B00225A601F4B00229A601E4B4C
:1013F00044F62062DA601C4B00221A611A4B00226C
:101400005A61194B00229A610323FB6000233B6160
:1014100001237B610023BB610F23FB6100233B623F
:1014200001237B620023BB620023FB6207F10C03F4
:1014300019460D4802F077F90346002B01D000F061
:10144000A7F900237B600023BB603B1D19460648BB
:1014500002F02EFD0346002B01D000F099F900BFE9
:101460003037BD4680BD00BF10010020002C014078
:1014700080B586B000AF07F1080300221A605A60F9
:101480009A60DA603B4600221A605A601D4B4FF0AA
:1014900080421A601B4B00225A601A4B00229A604D
:1014A000184B4FF6FF72DA60164B00221A61154B8B
:1014B00000229A61134802F0E8F80346002B01D09D
:1014C00000F066F94FF48053BB6007F1080319463A
:1014D0000C4802F0F5FA0346002B01D000F058F951
:1014E00000233B6000237B603B461946054802F021
:1014F000DFFC0346002B01D000F04AF900BF18378B
:10150000BD4680BDA805002080B588B000AF07F1BA
:10151000100300221A605A609A60DA60384B9B69A7
:10152000374A43F010039361354B9B6903F0100376
:10153000FB60FB68324B9B69314A43F004039361C3
:101540002F4B9B6903F00403BB60BB682C4B9B696A
:101550002B4A43F008039361294B9B6903F008036E
:101560007B607B6800224FF40051264800F0EDFDBF
:1015700000221021244800F0E8FD4FF400533B61A5
:1015800001237B610123BB610223FB6107F110038F
:1015900019461C4800F068FC10233B6101237B6165
:1015A0000123BB610223FB6107F1100319461648B2
:1015B00000F05AFC4FF430433B6100237B61012370
:1015C000BB6107F110031946104800F04DFC4FF4C1
:1015D00080433B610E4B7B610123BB6107F110032C
:1015E00019460A4800F040FC00220021282000F0A3
:1015F00004FC282000F01DFC00BF2037BD4680BD44
:10160000001002400010014000080140000C0140A1
:101610000000311080B483B000AF7860084B1B78B5
:101620000133DAB2064B1A70054B1B78FA2B02D93C
:10163000034BFA221A7000BF0C37BD4680BC7047BE
:101640009C00002080B584B000AF0346FB800023DF
:10165000FB73484B1B681A6A41F211131340002BAD
:101660000FD1444B1B681A6A40F244431340002BCD
:1016700007D1404B1B681A683E4B1B6822F00102E1
:101680001A603C4B1B685B6A3B4A13603B4B1B7800
:10169000012B06D9394B1B78322B02D80123FB735F
:1016A00001E00023FB73FB7B002B23D0FB88B3F509
:1016B000804F1FD1324B1B78002B0ED1314B1B6852
:1016C0000133304A13602F4B1B6844F6206293426B
:1016D00010DD2C4B00221A600CE02A4B1B68013BEA
:1016E000284A1360274B1B68002B03DA254B44F66E
:1016F00020621A604FF48041234800F00FFD03463A
:10170000012B0FD14FF400511F4800F007FD034695
:10171000002B03D11A4B01221A7012E0184B002241
:101720001A700EE04FF40051174800F0F7FC034622
:10173000012B03D1124B01221A7002E0104B002240
:101740001A700C4B1B6800225A620C4B00221A7054
:101750004FF400510D4800F010FD064B1B681A684D
:10176000044B1B6842F001021A6000BF1037BD46EF
:1017700080BD00BFA8050020A00000209C00002024
:101780009D00002008000020000C014000100140D6
:1017900080B400AF00BFBD4680BC704780B485B048
:1017A00000AF154B9B69144A43F001039361124B40
:1017B0009B6903F00103BB60BB680F4BDB690E4AFA
:1017C00043F08053D3610C4BDB6903F080537B60A3
:1017D0007B680A4B5B68FB60FB6823F0E063FB609F
:1017E000FB6843F00073FB60044AFB68536000BF72
:1017F0001437BD4680BC7047001002400000014015
:1018000080B588B000AF786007F1100300221A603D
:101810005A609A60DA607B681B68154A934223D14C
:10182000144B9B69134A43F008039361114B9B6966
:1018300003F00803FB60FB68C0233B6112237B615C
:101840000323FB6107F1100319460B4800F00CFB62
:10185000084BDB69074A43F40013D361054BDB698E
:1018600003F40013BB60BB6800BF2037BD4680BDDA
:101870000054004000100240000C014080B588B0C8
:1018800000AF786007F1100300221A605A609A6076
:10189000DA607B681B68154A934223D1144B9B691D
:1018A000134A43F480539361114B9B6903F48053B3
:1018B000FB60FB680E4B9B690D4A43F00403936188
:1018C0000B4B9B6903F00403BB60BB68A0233B6127
:1018D00002237B610323FB6107F1100319460548CE
:1018E00000F0C2FA00BF2037BD4680BD0030014085
:1018F000001002400008014080B588B000AF786059
:1019000007F1100300221A605A609A60DA607B685F
:101910001B68164A934224D1154B9B69144A43F421
:1019200000639361124B9B6903F40063FB60FB68E7
:101930000F4B9B690E4A43F0040393610C4B9B6968
:1019400003F00403BB60BB684FF440733B610023AA
:101950007B610123BB6107F110031946054800F0C4
:1019600083FA00BF2037BD4680BD00BF002C014078
:10197000001002400008014080B584B000AF7860DC
:101980007B681B68B3F1804F13D10C4BDB690B4AAA
:1019900043F00103D361094BDB6903F00103FB60F2
:1019A000FB68002200211C2000F027FA1C2000F018
:1019B00040FA00BF1037BD4680BD00BF0010024096
:1019C00080B400AF00BFBD4680BC704780B400AF9C
:1019D000FEE780B400AFFEE780B400AFFEE780B45E
:1019E00000AFFEE780B400AF00BFBD4680BC7047CB
:1019F00080B400AF00BFBD4680BC704780B400AF6C
:101A000000BFBD4680BC704780B500AF00F0E0F875
:101A100000BF80BD80B500AF024801F049FF00BFA4
:101A200080BD00BFA805002080B500AF4FF4804006
:101A300000F0BCFB00BF80BD80B584B000AF786013
:101A4000114B1B68002B02D10F4B104A1A600E4B32
:101A50001B68FB600C4B1A687B6813446A46934210
:101A600007D902F07BFA02460C2313604FF0FF33D4
:101A700006E0054B1A687B681344034A1360FB6851
:101A800018461037BD4680BDA4000020F005002098
:101A900080B400AF154B1B68144A43F00103136078
:101AA000124B5A681149124B13404B600F4B1B6885
:101AB0000E4A23F0847323F4803313600B4B1B68AE
:101AC0000A4A23F480231360084B5B68074A23F417
:101AD000FE035360054B4FF41F029A60054B4FF015
:101AE00000629A6000BFBD4680BC70470010024093
:101AF0000000FFF800ED00E0002103E00B4B5B5815
:101B0000435004310A480B4B42189A42F6D30A4A12
:101B100002E0002342F8043B084B9A42F9D3FFF756
:101B2000B7FF02F021FAFFF70FFB70477457000868
:101B3000000000208000002080000020F005002030
:101B4000FEE7000080B500AF084B1B68074A43F072
:101B500010031360032000F045F9002000F008F89E
:101B6000FFF71CFE0023184680BD00BF0020024086
:101B700080B582B000AF7860124B1A68124B1B78A8
:101B800019464FF47A73B3FBF1F3B2FBF3F3184643
:101B900000F05DF90346002B01D001230EE07B68C5
:101BA0000F2B0AD8002279684FF0FF3000F025F99A
:101BB000064A7B681360002300E0012318460837BB
:101BC000BD4680BD10000020180000201400002039
:101BD00080B400AF054B1B781A46054B1B681344B5
:101BE000034A136000BFBD4680BC70471800002048
:101BF000E805002080B400AF024B1B681846BD46C4
:101C000080BC7047E805002080B584B000AF7860E4
:101C1000FFF7F0FFB8607B68FB60FB68B3F1FF3F44
:101C200005D0094B1B781A46FB681344FB6000BFC4
:101C3000FFF7E0FF0246BB68D31AFA689A42F7D86A
:101C400000BF1037BD4680BD1800002080B485B0AD
:101C500000AF78607B6803F00703FB600C4BDB6828
:101C6000BB60BA684FF6FF031340BB60FB681A0203
:101C7000BB68134343F0BF6343F40033BB60044AC3
:101C8000BB68D36000BF1437BD4680BC704700BF3F
:101C900000ED00E080B400AF044BDB681B0A03F0EA
:101CA00007031846BD4680BC704700BF00ED00E04A
:101CB00080B483B000AF0346FB7197F90730002B67
:101CC0000BDBFB7903F01F02064997F907305B092C
:101CD000012000FA02F241F8232000BF0C37BD4674
:101CE00080BC704700E100E080B483B000AF0346E1
:101CF0003960FB7197F90730002B0ADB3B68DAB2D9
:101D00000C4997F907301201D2B20B4483F8002333
:101D10000AE03B68DAB20849FB7903F00F03043BA1
:101D20001201D2B20B441A7600BF0C37BD4680BCFC
:101D3000704700BF00E100E000ED00E080B489B032
:101D400000AFF860B9607A60FB6803F00703FB61DD
:101D5000FB69C3F10703042B28BF0423BB61FB69A4
:101D60000433062B02D9FB69033B00E000237B61AF
:101D70004FF0FF32BB6902FA03F3DA43BB681A4043
:101D80007B699A404FF0FF317B6901FA03F3D94335
:101D90007B680B40134318462437BD4680BC704710
:101DA00080B582B000AF78607B68013BB3F1807F83
:101DB00001D301230FE00A4A7B68013B53600F21E6
:101DC0004FF0FF30FFF790FF054B00229A60044B65
:101DD00007221A60002318460837BD4680BD00BFA1
:101DE00010E000E080B582B000AF78607868FFF75F
:101DF0002DFF00BF0837BD4680BD80B586B000AF5F
:101E00000346B9607A60FB7300237B61FFF742FFF2
:101E100078617A68B9687869FFF790FF024697F9A8
:101E20000F3011461846FFF75FFF00BF1837BD4659
:101E300080BD80B582B000AF0346FB7197F90730D3
:101E40001846FFF735FF00BF0837BD4680BD80B597
:101E500082B000AF78607868FFF7A2FF03461846AB
:101E60000837BD4680BD000080B48BB000AF7860FD
:101E7000396000237B6200233B6227E101227B6AF9
:101E800002FA03F3FB613B681B68FA691340BB610C
:101E9000BA69FB699A4240F016813B685B68122B75
:101EA00034D0122B0DD8022B2BD0022B04D8002BB0
:101EB00031D0012B1CD048E0032B43D0112B1BD079
:101EC00043E0894A934226D0874A934206D8874AFC
:101ED000934220D0864A93421DD036E0854A9342F1
:101EE00019D0854A934216D0844A934213D02CE0ED
:101EF0003B68DB683B6228E03B68DB6804333B629D
:101F000023E03B68DB6808333B621EE03B68DB682C
:101F10000C333B6219E03B689B68002B02D1042321
:101F20003B6212E03B689B68012B05D108233B62B2
:101F30007B68FA691A6108E008233B627B68FA69EA
:101F40005A6102E000233B6200BFBB69FF2B01D84E
:101F50007B6801E07B6804337B61BB69FF2B02D89F
:101F60007B6A9B0002E07B6A083B9B003B617B69CC
:101F70001A680F213B6901FA03F3DB431A40396AFF
:101F80003B6901FA03F31A437B691A603B685B689B
:101F900003F08053002B00F09680594B9B69584A00
:101FA00043F001039361564B9B6903F00103BB604F
:101FB000BB68544A7B6A9B08023352F82330FB60AB
:101FC0007B6A03F003039B000F2202FA03F3DB4357
:101FD000FA681340FB607B684B4A934213D07B68DE
:101FE0004A4A93420DD07B68494A934207D07B68A6
:101FF000484A934201D1032306E0042304E002236C
:1020000002E0012300E000237A6A02F0030292005A
:102010009340FA681343FB603A497B6A9B0802339A
:10202000FA6841F823203B685B6803F48033002B97
:1020300006D0394B1A683849BB6913430B6006E078
:10204000354B1A68BB69DB43334913400B603B686F
:102050005B6803F40033002B06D02F4B5A682E49DF
:10206000BB6913434B6006E02B4B5A68BB69DB43EB
:10207000294913404B603B685B6803F48013002BD5
:1020800006D0254B9A682449BB6913438B6006E050
:10209000214B9A68BB69DB431F4913408B603B6847
:1020A0005B6803F40013002B06D01B4BDA681A4957
:1020B000BB691343CB6006E0174BDA68BB69DB43AF
:1020C00015491340CB607B6A01337B623B681A6819
:1020D0007B6A22FA03F3002B7FF4D0AE00BF2C37CB
:1020E000BD4680BC704700BF0000211000001110E9
:1020F0000000121000003110000032100000221009
:10210000001002400000014000080140000C0140A6
:1021100000100140001401400004014080B485B06B
:1021200000AF78600B467B807B689A687B881340A1
:10213000002B02D00123FB7301E00023FB73FB7B28
:1021400018461437BD4680BC704780B483B000AFDA
:1021500078600B467B8013467B707B78002B03D026
:102160007A887B681A6103E07B881A047B681A61AD
:1021700000BF0C37BD4680BC704780B483B000AF51
:1021800078600B467B807B68DA687B881340002B85
:1021900003D07A887B685A6102E07A887B681A618A
:1021A00000BF0C37BD4680BC7047000080B582B0D0
:1021B00000AF0346FB80084B5A69FB881340002B95
:1021C00006D0054AFB885361FB881846FFF73AFAA8
:1021D00000BF0837BD4680BD0004014080B584B013
:1021E00000AF78607B68002B01D101230FE17B6891
:1021F00093F83D30DBB2002B06D17B68002283F8D8
:102200003C207868FFF7FCFA7B68242283F83D20A5
:102210007B681B681A687B681B6822F001021A60E1
:1022200000F0E4FFF8607B685B687B4A934207D864
:10223000FB687A4A934294BF01230023DBB206E095
:10224000FB68774A934294BF01230023DBB2002B43
:1022500001D00123DBE0FB68724AA2FB03239B0C45
:10226000BB607B681B685B6823F03F017B681B6871
:10227000BA680A435A607B681B681B6A23F03F01F7
:102280007B685B68644A934202D8BB68013309E00B
:10229000BB684FF4967202FB03F3634AA2FB03236D
:1022A0009B0901337A6812680B4313627B681B68D1
:1022B000DB6923F44F4222F0FF027B685B685649DA
:1022C0008B420DD8FB68591E7B685B685B00B1FBD5
:1022D000F3F30133C3F30B03042B38BF04234FE0A4
:1022E0007B689B68002B11D1FB68581E7B6859687E
:1022F0000B465B000B44B0FBF3F30133C3F30B035A
:10230000002B0CBF01230023DBB212E0FB68581E38
:102310007B6859680B469B000B4499000B44B0FB4B
:10232000F3F30133C3F30B03002B0CBF0123002392
:10233000DBB2002B01D0012322E07B689B68002BDD
:102340000ED1FB68581E7B6859680B465B000B4436
:10235000B0FBF3F30133C3F30B0343F400430FE08B
:10236000FB68581E7B6859680B469B000B4499001C
:102370000B44B0FBF3F30133C3F30B0343F44043CB
:10238000796809681343CB617B681B681B6823F07D
:10239000C0017B68DA697B681B6A1A437B681B682B
:1023A0000A431A607B681B689B6823F4034323F08D
:1023B000FF037A6811697A68D26811437A681268F3
:1023C0000B4393607B681B68DB6823F0FF017B682D
:1023D0005A697B689B691A437B681B680A43DA6009
:1023E0007B681B681A687B681B6842F001021A60F0
:1023F0007B6800221A647B68202283F83D207B687A
:1024000000221A637B68002283F83E2000231846CE
:102410001037BD4680BD00BFA08601007F841E002E
:10242000FF083D0083DE1B43D34D621080B588B0AA
:1024300002AFF860084611461A4603467B810B46F8
:102440003B811346FB80FFF7D5FB7861FB6893F86F
:102450003D30DBB2202B40F0D9807B6900931923FB
:1024600001226D49F86800F065F90346002B01D0A0
:102470000223CCE0FB6893F83C30012B01D102230E
:10248000C5E0FB68012283F83C20FB681B681B68E1
:1024900003F00103012B07D0FB681B681A68FB6877
:1024A0001B6842F001021A60FB681B681A68FB682F
:1024B0001B6822F400621A60FB68212283F83D2029
:1024C000FB68402283F83E20FB6800221A64FB6808
:1024D0003A6A5A62FB68BA8C5A85FB685B8D9AB27D
:1024E000FB681A85FB684D4ADA62F8883A8979896F
:1024F0007B690193BB6A00930346F86800F090F88B
:102500000346002B52D0012381E07A69B96AF8684A
:1025100000F0E6F90346002B0DD0FB681B6C042B82
:1025200007D1FB681B681A68FB681B6842F40072DD
:102530001A6001236BE0FB685B6A1A78FB681B6812
:102540001A61FB685B6A5A1CFB685A62FB681B8D48
:10255000013B9AB2FB681A85FB685B8D9BB2013B1D
:102560009AB2FB685A85FB681B685B6903F0040339
:10257000042B1BD1FB681B8D002B17D0FB685B6AFB
:102580001A78FB681B681A61FB685B6A5A1CFB6857
:102590005A62FB681B8D013B9AB2FB681A85FB6887
:1025A0005B8D9BB2013B9AB2FB685A85FB681B8D21
:1025B000002BAAD17A69B96AF86800F0D2F903460B
:1025C000002B0DD0FB681B6C042B07D1FB681B682C
:1025D0001A68FB681B6842F400721A60012316E057
:1025E000FB681B681A68FB681B6842F400721A607B
:1025F000FB68202283F83D20FB68002283F83E2000
:10260000FB68002283F83C20002300E002231846E8
:102610001837BD4680BD00BF020010000000FFFF5C
:1026200080B588B002AFF860084611461A460346E6
:102630007B810B463B811346FB80FB681B681A6855
:10264000FB681B6842F480721A607B6A00933B6AE5
:1026500000224FF00111F86800F06CF80346002BDF
:1026600001D001235FE07B89DBB21A46FB681B685F
:1026700002F0FE021A617B6A3A6A2D49F86800F09E
:10268000B0F80346002B01D001234CE000237B610E
:10269000FB681B685B697B61FB681B689B697B61EE
:1026A0007B697A6A396AF86800F01AF90346002BE8
:1026B0000DD0FB681B6C042B07D1FB681B681A68E4
:1026C000FB681B6842F400721A6001232BE0FB8850
:1026D000012B05D13B89DAB2FB681B681A6121E046
:1026E0003B891B0A9BB2DAB2FB681B681A617A6AE3
:1026F000396AF86800F0F4F80346002B0DD0FB6847
:102700001B6C042B07D1FB681B681A68FB681B68ED
:1027100042F400721A60012305E03B89DAB2FB68DB
:102720001B681A61002318461837BD4680BD00BFDC
:102730000200010080B584B000AFF860B9603B6072
:102740001346FB7125E03B68B3F1FF3F21D0FFF753
:1027500051FA0246BB69D31A3A689A4202D33B68DF
:10276000002B16D1FB6800221A63FB68202283F835
:102770003D20FB68002283F83E20FB681B6C43F081
:102780002002FB681A64FB68002283F83C200123C6
:1027900023E0BB681B0CDBB2012B0DD1FB681B686F
:1027A0005B69DA43BB6813409BB2002B0CBF01236B
:1027B0000023DBB21A460CE0FB681B689B69DA4316
:1027C000BB6813409BB2002B0CBF01230023DBB27C
:1027D0001A46FB799A42B6D0002318461037BD46F8
:1027E00080BD80B584B000AFF860B9607A603B60AE
:1027F00051E0FB681B685B6903F48063B3F5806F8D
:1028000023D1FB681B681A68FB681B6842F40072DE
:102810001A60FB681B686FF480625A61FB680022D3
:102820001A63FB68202283F83D20FB68002283F8AE
:102830003E20FB681B6C43F00402FB681A64FB68D3
:10284000002283F83C20012346E07B68B3F1FF3F80
:1028500021D0FFF7CFF902463B68D31A7A689A4233
:1028600002D37B68002B16D1FB6800221A63FB6839
:10287000202283F83D20FB68002283F83E20FB687D
:102880001B6C43F02002FB681A64FB68002283F88B
:102890003C20012320E0BB681B0CDBB2012B0CD1D8
:1028A000FB681B685B69DA43BB6813409BB2002B73
:1028B00014BF01230023DBB20BE0FB681B689B699C
:1028C000DA43BB6813409BB2002B14BF01230023E3
:1028D000DBB2002B8DD1002318461037BD4680BDDA
:1028E00080B584B000AFF860B9607A602DE0F86818
:1028F00000F078F80346002B01D001232DE0BB68DF
:10290000B3F1FF3F21D0FFF775F902467B68D31A78
:10291000BA689A4202D3BB68002B16D1FB6800222A
:102920001A63FB68202283F83D20FB68002283F8AD
:102930003E20FB681B6C43F02002FB681A64FB68B6
:10294000002283F83C20012307E0FB681B685B69D9
:1029500003F08003802BCAD1002318461037BD46F0
:1029600080BD80B584B000AFF860B9607A602DE0BA
:10297000F86800F037F80346002B01D001232DE062
:10298000BB68B3F1FF3F21D0FFF734F902467B6803
:10299000D31ABA689A4202D3BB68002B16D1FB68DF
:1029A00000221A63FB68202283F83D20FB68002286
:1029B00083F83E20FB681B6C43F02002FB681A641E
:1029C000FB68002283F83C20012307E0FB681B68BA
:1029D0005B6903F00403042BCAD1002318461037A7
:1029E000BD4680BD80B483B000AF78607B681B6853
:1029F0005B6903F48063B3F5806F1BD17B681B6850
:102A00006FF480625A617B6800221A637B6820221F
:102A100083F83D207B68002283F83E207B681B6C96
:102A200043F004027B681A647B68002283F83C2030
:102A3000012300E0002318460C37BD4680BC7047D8
:102A400080B586B000AF78607B68002B01D1012390
:102A50006CE27B681B6803F00103002B00F08780A9
:102A6000924B5B6803F00C03042B0CD08F4B5B681C
:102A700003F00C03082B12D18C4B5B6803F48033FA
:102A8000B3F5803F0BD1894B1B6803F40033002B57
:102A90006CD07B685B68002B68D1012346E27B68C1
:102AA0005B68B3F5803F06D1804B1B687F4A43F4D7
:102AB000803313602EE07B685B68002B0CD17B4B6E
:102AC0001B687A4A23F480331360784B1B68774A7B
:102AD00023F4802313601DE07B685B68B3F5A02FAF
:102AE0000CD1724B1B68714A43F4802313606F4B07
:102AF0001B686E4A43F4803313600BE06B4B1B681A
:102B00006A4A23F480331360684B1B68674A23F4D6
:102B1000802313607B685B68002B13D0FFF76AF893
:102B2000386108E0FFF766F802463B69D31A642B68
:102B300001D90323FAE15D4B1B6803F40033002B3A
:102B4000F0D014E0FFF756F8386108E0FFF752F8CC
:102B500002463B69D31A642B01D90323E6E1534BA8
:102B60001B6803F40033002BF0D100E000BF7B684A
:102B70001B6803F00203002B63D04C4B5B6803F02F
:102B80000C03002B0BD0494B5B6803F00C03082BA4
:102B90001CD1464B5B6803F48033002B16D1434BAA
:102BA0001B6803F00203002B05D07B681B69012B17
:102BB00001D00123BAE13D4B1B6823F0F8027B688A
:102BC0005B69DB00394913430B603AE07B681B69A2
:102BD000002B20D0364B01221A60FFF70BF838612A
:102BE00008E0FFF707F802463B69D31A022B01D928
:102BF00003239BE12D4B1B6803F00203002BF0D055
:102C00002A4B1B6823F0F8027B685B69DB002749CD
:102C100013430B6015E0264B00221A60FEF7EAFF13
:102C2000386108E0FEF7E6FF02463B69D31A022B43
:102C300001D903237AE11D4B1B6803F00203002B2B
:102C4000F0D17B681B6803F00803002B3AD07B6847
:102C50009B69002B19D0174B01221A60FEF7CAFF9F
:102C6000386108E0FEF7C6FF02463B69D31A022B23
:102C700001D903235AE10D4B5B6A03F00203002BD9
:102C8000F0D0012000F0C6FA1CE00A4B00221A60C6
:102C9000FEF7B0FF38610FE0FEF7ACFF02463B697C
:102CA000D31A022B08D9032340E100BF00100240D1
:102CB00000004242800442429E4B5B6A03F00203E2
:102CC000002BE9D17B681B6803F00403002B00F0A4
:102CD000A6800023FB75974BDB6903F08053002B24
:102CE0000DD1944BDB69934A43F08053D361914BF0
:102CF000DB6903F08053BB60BB680123FB758E4B1F
:102D00001B6803F48073002B18D18B4B1B688A4A15
:102D100043F480731360FEF76DFF386108E0FEF73F
:102D200069FF02463B69D31A642B01D90323FDE0F6
:102D3000814B1B6803F48073002BF0D07B68DB6849
:102D4000012B06D17B4B1B6A7A4A43F001031362C5
:102D50002DE07B68DB68002B0CD1764B1B6A754A33
:102D600023F001031362734B1B6A724A23F00403BE
:102D700013621CE07B68DB68052B0CD16D4B1B6A72
:102D80006C4A43F0040313626A4B1B6A694A43F0BE
:102D9000010313620BE0674B1B6A664A23F00103D1
:102DA0001362644B1B6A634A23F0040313627B685B
:102DB000DB68002B15D0FEF71DFF38610AE0FEF737
:102DC00019FF02463B69D31A41F28832934201D976
:102DD0000323ABE0574B1B6A03F00203002BEED03A
:102DE00014E0FEF707FF38610AE0FEF703FF024632
:102DF0003B69D31A41F28832934201D9032395E00B
:102E00004C4B1B6A03F00203002BEED1FB7D012B20
:102E100005D1484BDB69474A23F08053D3617B6877
:102E2000DB69002B00F08180424B5B6803F00C03F0
:102E3000082B61D07B68DB69022B46D13F4B002217
:102E40001A60FEF7D7FE386108E0FEF7D3FE0246AF
:102E50003B69D31A022B01D9032367E0354B1B686A
:102E600003F00073002BF0D17B681B6AB3F5803F41
:102E700008D1304B5B6823F400327B689B682D4996
:102E800013434B602B4B5B6823F474127B68196A05
:102E90007B685B6A0B43274913434B60274B012236
:102EA0001A60FEF7A7FE386108E0FEF7A3FE0246AF
:102EB0003B69D31A022B01D9032337E01D4B1B6852
:102EC00003F00073002BF0D02FE01C4B00221A609F
:102ED000FEF790FE386108E0FEF78CFE02463B6983
:102EE000D31A022B01D9032320E0124B1B6803F0F5
:102EF0000073002BF0D118E07B68DB69012B01D156
:102F0000012313E00B4B5B68FB60FB6803F480322A
:102F10007B681B6A9A4206D1FB6803F470127B68D7
:102F20005B6A9A4201D0012300E00023184618375B
:102F3000BD4680BD0010024000700040600042426B
:102F400080B584B000AF786039607B68002B01D118
:102F50000123D0E06A4B1B6803F007033A689A42EA
:102F600010D9674B1B6823F0070265493B68134380
:102F70000B60634B1B6803F007033A689A4201D069
:102F80000123B8E07B681B6803F00203002B20D00C
:102F90007B681B6803F00403002B05D0594B5B686A
:102FA000584A43F4E06353607B681B6803F00803EE
:102FB000002B05D0534B5B68524A43F46053536077
:102FC000504B5B6823F0F0027B689B684D491343CC
:102FD0004B607B681B6803F00103002B40D07B68CB
:102FE0005B68012B07D1474B1B6803F40033002BB0
:102FF00015D101237FE07B685B68022B07D1414B31
:103000001B6803F00073002B09D1012373E03D4BD3
:103010001B6803F00203002B01D101236BE0394B45
:103020005B6823F003027B685B68364913434B609F
:10303000FEF7E0FDF8600AE0FEF7DCFD0246FB6803
:10304000D31A41F28832934201D9032353E02D4B26
:103050005B6803F00C027B685B689B009A42EBD1D3
:10306000274B1B6803F007033A689A4210D2244B9F
:103070001B6823F0070222493B6813430B60204B77
:103080001B6803F007033A689A4201D0012332E03B
:103090007B681B6803F00403002B08D0194B5B68A6
:1030A00023F4E0627B68DB68164913434B607B685E
:1030B0001B6803F00803002B09D0124B5B6823F454
:1030C00060527B681B69DB000E4913434B6000F0C4
:1030D00021F801460B4B5B681B0903F00F030A4AFA
:1030E000D35C21FA03F3094A1360094B1B681846A5
:1030F000FEF73EFD002318461037BD4680BD00BFD9
:10310000002002400010024020570008100000205C
:103110001400002090B48AB000AF2A4B3C1D0FCBA6
:1031200084E80F00284B1B883B800023FB610023B1
:10313000BB6100237B6200237B6100233B62234B46
:103140005B68FB61FB6903F00C03042B02D0082BC6
:1031500003D02DE01E4B3B622DE0FB699B0C03F07E
:103160000F0307F12802134413F8243C7B61FB6929
:1031700003F48033002B13D0144B5B685B0C03F01B
:10318000010307F12802134413F8283CBB617B6953
:103190000F4A02FB03F2BB69B2FBF3F37B6204E06C
:1031A0007B690C4A02FB03F37B627B6A3B6202E0B1
:1031B000074B3B6200BF3B6A18462837BD4690BCB0
:1031C000704700BF3448000844480008001002401F
:1031D00000127A0000093D0080B400AF024B1B686A
:1031E0001846BD4680BC70471000002080B500AF77
:1031F000FFF7F2FF0146054B5B681B0A03F007036C
:10320000034AD35C21FA03F3184680BD0010024044
:103210003057000880B485B000AF78600A4B1B6857
:103220000A4AA2FB03235B0A7A6802FB03F3FB60F2
:1032300000BFFB685A1EFA60002BF9D100BF14379B
:10324000BD4680BC704700BF10000020D34D621007
:1032500080B582B000AF78607B68002B01D101237C
:1032600053E07B6800229A627B6893F85130DBB2AE
:10327000002B06D17B68002283F850207868FEF787
:10328000FDFA7B68022283F851207B681B681A686C
:103290007B681B6822F040021A607B685A687B6872
:1032A0009B681A437B68DB681A437B681B691A4377
:1032B0007B685B691A437B689B6903F400731A435C
:1032C0007B68DB691A437B681B6A42EA03017B68FF
:1032D0009A6A7B681B680A431A607B689B691A0CB0
:1032E0007B681B6802F004025A607B681B68DA691D
:1032F0007B681B6822F40062DA617B6800225A65F1
:103300007B68012283F85120002318460837BD4608
:1033100080BD80B588B000AFF860B9603B601346EF
:10332000FB800023FB77FB6893F85030012B01D121
:1033300002231EE1FB68012283F85020FEF75AFCAD
:10334000B861FB88FB82FB6893F85130DBB2012B3C
:1033500002D00223FB7703E1BB68002B02D0FB887D
:10336000002B02D10123FB77FAE0FB68032283F8EC
:103370005120FB6800225A65FB68BA681A63FB6833
:10338000FA889A86FB68FA88DA86FB6800229A63D4
:10339000FB6800229A87FB680022DA87FB6800221C
:1033A0005A64FB6800221A64FB689B68B3F5004FFF
:1033B00007D1FB681B681A68FB681B6842F48042EF
:1033C0001A60FB681B681B6803F04003402B07D0A2
:1033D000FB681B681A68FB681B6842F040021A60B1
:1033E000FB68DB68B3F5006F4BD1FB685B68002BB3
:1033F00002D0FB8A012B3ED1FB681B6B1A88FB684D
:103400001B68DA60FB681B6B9A1CFB681A63FB681D
:10341000DB8E9BB2013B9AB2FB68DA862BE0FB683D
:103420001B689B6803F00203022B12D1FB681B6B25
:103430001A88FB681B68DA60FB681B6B9A1CFB68C8
:103440001A63FB68DB8E9BB2013B9AB2FB68DA869B
:1034500011E0FEF7CFFB0246BB69D31A3A689A42E5
:1034600003D83B68B3F1FF3F02D13B68002B02D188
:103470000323FB7774E0FB68DB8E9BB2002BCED17D
:103480004CE0FB685B68002B02D0FB8A012B40D12B
:10349000FB681A6BFB681B680C3312781A70FB68A8
:1034A0001B6B5A1CFB681A63FB68DB8E9BB2013BEB
:1034B0009AB2FB68DA862CE0FB681B689B6803F015
:1034C0000203022B13D1FB681A6BFB681B680C33D9
:1034D00012781A70FB681B6B5A1CFB681A63FB6836
:1034E000DB8E9BB2013B9AB2FB68DA8611E0FEF7F5
:1034F00081FB0246BB69D31A3A689A4203D83B68FB
:10350000B3F1FF3F02D13B68002B02D10323FB77CD
:1035100026E0FB68DB8E9BB2002BCDD1BA693968FF
:10352000F86800F094F80346002B02D0FB682022D4
:103530005A65FB689B68002B0AD100233B61FB683E
:103540001B68DB683B61FB681B689B683B613B69F0
:10355000FB685B6D002B02D00123FB7700E000BF0E
:10356000FB68012283F85120FB68002283F8502079
:10357000FB7F18462037BD4680BD80B584B000AFC4
:10358000F860B9603B601346FB714CE03B68B3F1F7
:10359000FF3F48D0FEF72EFB0246BB69D31A3A68BC
:1035A0009A4202D93B68002B3DD1FB681B685A68E0
:1035B000FB681B6822F0E0025A60FB685B68B3F5A9
:1035C000827F11D1FB689B68B3F5004F04D0FB6884
:1035D0009B68B3F5806F07D1FB681B681A68FB68AE
:1035E0001B6822F040021A60FB689B6AB3F5005F1B
:1035F0000FD1FB681B681A68FB681B6822F4005235
:103600001A60FB681B681A68FB681B6842F400526A
:103610001A60FB68012283F85120FB68002283F8BE
:10362000502003230FE0FB681B689A68BB681340B7
:10363000BA689A420CBF01230023DBB21A46FB7919
:103640009A42A3D1002318461037BD4680BD80B5ED
:1036500086B002AFF860B9607A607B680093BB689F
:1036600000228021F868FFF788FF0346002B07D06F
:10367000FB685B6D43F02002FB685A65032300E0A2
:10368000002318461037BD4680BD80B582B000AF1C
:1036900078607B68002B01D101231DE07B6893F8E3
:1036A0003D30DBB2002B06D17B68002283F83C2042
:1036B0007868FEF761F97B68022283F83D207B6819
:1036C0001A687B6804331946104600F0D5FA7B6807
:1036D000012283F83D20002318460837BD4680BDEF
:1036E00080B485B000AF78607B681B68DA687B685F
:1036F0001B6842F00102DA607B681B689B6803F07C
:103700000703FB60FB68062B07D07B681B681A6801
:103710007B681B6842F001021A60002318461437C8
:10372000BD4680BC704780B586B000AF7860396018
:103730007B68002B01D101237FE07B6893F83D304B
:10374000DBB2002B06D17B68002283F83C2078682E
:10375000FEF7D2F87B68022283F83D207B681B6865
:103760009B687A68126823F4804323F00703936010
:103770007B681A687B6804331946104600F07CFAAF
:103780007B681B689B687B617B681B689B693B61EE
:103790007B681B681B6AFB603B681B687A69134384
:1037A0007B613B6923F4407323F003033B613B6877
:1037B0009A683B689B691B0213433A6913433B6158
:1037C0003B6923F4406323F00C033B613B6923F422
:1037D000704323F0F0033B613B68DA683B68DB69C8
:1037E0001B0213433A6913433B613B681B691A018F
:1037F0003B681B6A1B0313433A6913433B61FB6835
:1038000023F02203FB603B685A683B685B691B013D
:103810001343FA681343FB607B681B687A699A60FC
:103820007B681B683A699A617B681B68FA681A6250
:103830007B68012283F83D20002318461837BD46D7
:1038400080BD80B582B000AF786039603B68002BE6
:1038500002D0042B08D00FE07B681B6801220021F6
:10386000184600F001FB16E07B681B68012204216A
:10387000184600F0F9FA0EE07B681B68012200216F
:10388000184600F0F1FA7B681B68012204211846F3
:1038900000F0EAFA00BF7B681B681A687B681B6847
:1038A00042F001021A60002318460837BD4680BD69
:1038B00080B582B000AF78607B681B681B6903F03D
:1038C0000203022B22D17B681B68DB6803F0020332
:1038D000022B1BD17B681B686FF002021A617B68A8
:1038E00001221A777B681B689B6903F00303002B96
:1038F00003D0786800F0A4F905E0786800F097F943
:10390000786800F0A6F97B6800221A777B681B684C
:103910001B6903F00403042B22D17B681B68DB685E
:1039200003F00403042B1BD17B681B686FF00402B7
:103930001A617B6802221A777B681B689B6903F413
:103940004073002B03D0786800F07AF905E07868BE
:1039500000F06DF9786800F07CF97B6800221A7736
:103960007B681B681B6903F00803082B22D17B6866
:103970001B68DB6803F00803082B1BD17B681B68FE
:103980006FF008021A617B6804221A777B681B6853
:10399000DB6903F00303002B03D0786800F050F9D3
:1039A00005E0786800F043F9786800F052F97B6828
:1039B00000221A777B681B681B6903F01003102B29
:1039C00022D17B681B68DB6803F01003102B1BD12E
:1039D0007B681B686FF010021A617B6808221A77F7
:1039E0007B681B68DB6903F44073002B03D07868A5
:1039F00000F026F905E0786800F019F9786800F021
:103A000028F97B6800221A777B681B681B6903F022
:103A10000103012B0ED17B681B68DB6803F00103F7
:103A2000012B07D17B681B686FF001021A6178686F
:103A3000FDF7F0FD7B681B681B6903F08003802B9A
:103A40000ED17B681B68DB6803F08003802B07D1F5
:103A50007B681B686FF080021A61786800F075FA65
:103A60007B681B681B6903F04003402B0ED17B6809
:103A70001B68DB6803F04003402B07D17B681B68A1
:103A80006FF040021A61786800F0ECF87B681B6800
:103A90001B6903F02003202B0ED17B681B68DB68B9
:103AA00003F02003202B07D17B681B686FF02002F6
:103AB0001A61786800F040FA00BF0837BD4680BD43
:103AC00080B584B000AF786039607B6893F83C3093
:103AD000012B01D10223A6E07B68012283F83C2060
:103AE0007B68022283F83D207B681B689B68FB6033
:103AF000FB6823F07703FB60FB6823F47F43FB60E4
:103B00007B681B68FA689A603B681B68402B67D02B
:103B1000402B0BD8102B73D0102B02D8002B6FD05A
:103B200078E0202B6CD0302B6AD073E0702B0DD056
:103B3000702B04D8502B33D0602B41D06AE0B3F502
:103B4000805F66D0B3F5005F17D063E07B681868CC
:103B50003B6899683B685A683B68DB6800F065F928
:103B60007B681B689B68FB60FB6843F07703FB6026
:103B70007B681B68FA689A604CE07B6818683B6851
:103B800099683B685A683B68DB6800F04EF97B68CF
:103B90001B689A687B681B6842F480429A6039E02F
:103BA0007B6818683B6859683B68DB681A4600F018
:103BB000C5F87B681B685021184600F01CF929E005
:103BC0007B6818683B6859683B68DB681A4600F0F8
:103BD000E3F87B681B686021184600F00CF919E0D7
:103BE0007B6818683B6859683B68DB681A4600F0D8
:103BF000A5F87B681B684021184600F0FCF809E036
:103C00007B681A683B681B681946104600F0F3F899
:103C100000E000BF7B68012283F83D207B68002222
:103C200083F83C20002318461037BD4680BD80B481
:103C300083B000AF786000BF0C37BD4680BC7047D2
:103C400080B483B000AF786000BF0C37BD4680BC45
:103C5000704780B483B000AF786000BF0C37BD46BA
:103C600080BC704780B483B000AF786000BF0C3771
:103C7000BD4680BC7047000080B485B000AF78605E
:103C800039607B681B68FB607B68294A93420BD0D4
:103C90007B68B3F1804F07D07B68264A934203D0FC
:103CA0007B68254A934208D1FB6823F07003FB60D0
:103CB0003B685B68FA681343FB607B681C4A93426D
:103CC0000BD07B68B3F1804F07D07B68194A9342D1
:103CD00003D07B68184A934208D1FB6823F44073F1
:103CE000FB603B68DB68FA681343FB60FB6823F00A
:103CF00080023B685B691343FB607B68FA681A606B
:103D00003B689A687B68DA623B681A687B689A62EB
:103D10007B68074A934203D13B681A697B681A6340
:103D20007B6801225A6100BF1437BD4680BC7047D2
:103D3000002C0140000400400008004080B487B01F
:103D400000AFF860B9607A60FB681B6A7B61FB6852
:103D50001B6A23F00102FB681A62FB689B693B61E6
:103D60003B6923F0F0033B617B681B013A69134315
:103D70003B617B6923F00A037B617A69BB6813436B
:103D80007B61FB683A699A61FB687A691A6200BFD5
:103D90001C37BD4680BC704780B487B000AFF86068
:103DA000B9607A60FB681B6A23F01002FB681A6234
:103DB000FB689B697B61FB681B6A3B617B6923F441
:103DC00070437B617B681B037A6913437B613B69AA
:103DD00023F0A0033B61BB681B013A6913433B61BD
:103DE000FB687A699A61FB683A691A6200BF1C37FE
:103DF000BD4680BC704780B485B000AF7860396044
:103E00007B689B68FB60FB6823F07003FB603A688B
:103E1000FB68134343F00703FB607B68FA689A6012
:103E200000BF1437BD4680BC704780B487B000AF78
:103E3000F860B9607A603B60FB689B687B617B6976
:103E400023F47F437B613B681A027B681A43BB689B
:103E500013437A6913437B61FB687A699A6000BFF8
:103E60001C37BD4680BC704780B487B000AFF86097
:103E7000B9607A60BB6803F01F03012202FA03F302
:103E80007B61FB681A6A7B69DB431A40FB681A6234
:103E9000FB681A6ABB6803F01F03796801FA03F331
:103EA0001A43FB681A6200BF1C37BD4680BC7047CE
:103EB00080B485B000AF786039607B6893F83C309F
:103EC000012B01D1022332E07B68012283F83C20E0
:103ED0007B68022283F83D207B681B685B68FB607F
:103EE0007B681B689B68BB60FB6823F07003FB600A
:103EF0003B681B68FA681343FB60BB6823F08003D0
:103F0000BB603B685B68BA681343BB607B681B6837
:103F1000FA685A607B681B68BA689A607B680122FD
:103F200083F83D207B68002283F83C20002318465C
:103F30001437BD4680BC704780B483B000AF786052
:103F400000BF0C37BD4680BC704780B483B000AF63
:103F5000786000BF0C37BD4680BC7047014B1868C5
:103F6000704700BF1C00002070B500250C4E0D4CA2
:103F7000A41BA410A54209D100F034FC00250A4E70
:103F80000A4CA41BA410A54205D170BD56F82530DB
:103F900098470135EEE756F8253098470135F2E7A6
:103FA0006C5700086C5700086C57000870570008E1
:103FB00003460244934200D1704703F8011BF9E71E
:103FC0000EB46FF0004100B59CB01DAB029006909E
:103FD000079104910848094953F8042B059100689A
:103FE00002A9019300F066F80022029B1A701CB02F
:103FF0005DF804EB03B070471C0000200802FFFFCF
:104000002DE9F0478E6882469E420C4690469946BE
:1040100037D88A8912F4906F31D002232568096954
:104020006F1A656905EB450595FBF3F509F1010389
:104030003B449D4238BF1D46530530D5294600F00C
:1040400037FB064650B90C234FF0FF30CAF800305A
:10405000A38943F04003A381BDE8F0873A46216974
:1040600000F0B6FAA38923F4906343F08003A381A0
:1040700026613E4426604E466561ED1BA5604E45B7
:1040800000D94E4632464146206800F0ACFAA3689B
:1040900000209B1BA36023681E442660DCE72A46A1
:1040A00000F060FB06460028E2D12169504600F08E
:1040B000B3FAC8E72DE9F04F1D468B899DB01F0666
:1040C00080460C4616460FD50B696BB9402100F0AF
:1040D000EFFA2060206128B90C23C8F800304FF0B7
:1040E000FF30C8E0402363610023099320238DF84B
:1040F000293030234FF0010B8DF82A3003953746D5
:104100003D4615F8013B0BB1252B3ED1B7EB060A16
:104110000BD05346324621464046FFF771FF01302F
:1041200000F0A480099B534409933B78002B00F0D6
:104130009D8000234FF0FF32CDE9052304930793C0
:104140008DF853301A932F46052217F8011B50485B
:1041500000F030FA049BD0B9D90644BF20228DF874
:1041600053201A0744BF2B228DF853202A782A2A7D
:1041700015D02F4600200A25079A394611F8013B31
:10418000303B092B4DD9B8B10FE02F46B8E7404A74
:104190003D46801A0BFA00F018430490D3E7039AC7
:1041A000111D12680391002A01DB079204E05242BC
:1041B00043F00203079204933B782E2B0CD17B78BB
:1041C0002A2B33D1039B02371A1D1B680392002B45
:1041D000B8BF4FF0FF3305932E4D032239782846A0
:1041E00000F0E8F938B14023401B03FA00F0049BCB
:1041F0000137034304933978062227487E1C8DF843
:10420000281000F0D7F9002838D0244B13BB039BAB
:10421000073323F0070308330393099B4B440993A7
:104220006DE705FB023201200F46A6E700230A25B1
:10423000194601370593384610F8012B303A092A00
:1042400003D9002BC8D00591C6E705FB0121012346
:104250000746F0E703AB00932246114B04A9404602
:10426000AFF30080B0F1FF3F8146D6D1A3895B0652
:104270003FF535AF09981DB0BDE8F08F03AB009353
:104280002246074B04A9404600F082F8EAE700BF47
:10429000385700083E570008425700080000000049
:1042A000014000082DE9F04791461F468A680B69D6
:1042B00006469342B8BF1346C9F8003091F8432030
:1042C0000C46DDF8208012B10133C9F800302368B4
:1042D000990642BFD9F800300233C9F8003025688A
:1042E00015F0060507D104F1190AE368D9F8002092
:1042F0009B1AAB4229DC94F843302268003318BF84
:10430000012392062ED404F1430239463046C047B9
:10431000013021D02368E56803F00603042B18BFA1
:104320000025D9F800204FF0000908BFAD1AA36896
:10433000226908BF25EAE5759342C4BF9B1AED18B0
:104340001A344D451AD1002008E00123524639465F
:104350003046C047013003D14FF0FF30BDE8F08751
:104360000135C2E73020E11881F843005A1C94F867
:1043700045102244023382F84310C4E70123224649
:1043800039463046C0470130E6D009F10109D8E787
:104390002DE9F04301F1430C0C46097E85B06E29EE
:1043A0001746064698460C9A00F0B38022D8632937
:1043B00036D00AD8002900F0B980582900F083804F
:1043C00004F1420584F8421032E0642901D06929E1
:1043D000F6D120681368050603F104012AD51B688D
:1043E0001160002B03DA2D225B4284F843206F48D2
:1043F0000A2239E0732900F09D8008D86F2920D067
:104400007029DDD1236843F02003236003E0752980
:1044100017D07829D4D17823654884F8453055E001
:10442000136804F14205191D1B68116084F84230BD
:1044300001238CE01B6810F0400F116018BF1BB205
:10444000CFE713682568181D1060280601D51B6882
:1044500002E06806FBD51B886F2914BF0A220822D8
:104460005248002184F843106568002DA560C0F211
:104470009580216821F004012160002B3DD1002DA1
:1044800040F08E806546082A0BD12368DB0708D5EB
:10449000236962689A42DEBF302305F8013C05F1CA
:1044A000FF35ACEB05032361CDF800803B4603AA42
:1044B00021463046FFF7F6FE01304DD14FF0FF3078
:1044C00005B0BDE8F083394884F8451013682168C9
:1044D0001D1D1B6815600A060BD5CA0744BF41F0B5
:1044E000200121601BB9226822F0200222601022E4
:1044F000B7E74D0648BF9BB2EFE76546B3FBF2F165
:1045000002FB1133C35C05F8013D0B460029F5D1D0
:10451000B9E713682568181D6169106028061B68D3
:1045200001D5196002E06A06FBD5198000236546B3
:104530002361B9E71368191D11601D6862680021C5
:10454000284600F037F808B1401B606063682361BB
:10455000002384F84330A7E723692A4639463046CA
:10456000C0470130AAD023689B0713D4E068039B9F
:104570009842B8BF1846A3E701234A463946304659
:10458000C04701309AD00135E368039A9B1AAB42C9
:10459000F2DCEBE7002504F11909F5E7002BACD1BB
:1045A000037804F1420584F842306CE7495700086B
:1045B0005A57000810B5C9B202449042034601D1CF
:1045C000002303E01C7801308C42F6D1184610BD60
:1045D00010B5431E0A44914200D110BD11F8014BA1
:1045E00003F8014FF7E7884210B501EB020307D843
:1045F000421E99420AD011F8014B02F8014FF8E728
:104600008342F5D98118D21AD34200D110BD13F8D4
:10461000014D01F8014DF7E738B50546002943D0B3
:1046200051F8043C0C1F002BB8BFE41800F0D0F880
:104630001E4A1368104633B9636014602846BDE80B
:10464000384000F0C6B8A3420BD9216862189342E3
:1046500001BF1A685B685218226063600460EDE76E
:1046600013465A680AB1A242FAD919685818A042EA
:104670000BD120680144581882421960DED11068BD
:104680005268014419605A60D8E702D90C232B60A4
:10469000D4E7206821188A4201BF116852680918BE
:1046A000216062605C60C9E738BD00BFA8000020DF
:1046B00070B5CD1C25F0030508350C2D38BF0C2531
:1046C000002D064601DBA94203D90C2333600020EC
:1046D00070BD00F07DF8214A1468214691B9204C44
:1046E00023681BB9304600F063F820602946304645
:1046F00000F05EF8431C24D10C233046336000F0F8
:1047000068F8E4E70B685B1B18D40B2B0FD90B6020
:10471000CC18CD50304600F05CF804F10B00231D9E
:1047200020F00700C31AD3D05A42E250D0E74B68BA
:104730008C4216BF636013600C46EBE70C46496879
:10474000CCE7C41C24F00304A04205D0211A304653
:1047500000F02EF80130CFD02560DBE7A800002064
:10476000AC000020F8B5074614460E4621B9BDE856
:10477000F8401146FFF79CBF22B9FFF74DFF2546D1
:104780002846F8BD00F026F8A0420FD22146384650
:10479000FFF78EFF05460028F2D031462246FFF78C
:1047A00017FF31463846FFF737FFE9E73546E7E7B9
:1047B00038B50023054C054608462360FDF73CF953
:1047C000431C02D1236803B12B6038BDEC050020E7
:1047D0007047704751F8043C181F002BBCBF0B58A2
:1047E000C0187047F8B500BFF8BC08BC9E467047BB
:0C47F000F8B500BFF8BC08BC9E4670473E
:1047FC002564000073616C616D20636865746F7271
:10480C006900000066726571203D20002020202088
:10481C00202020200000000064622020203D200089
:10482C00632020203D200000020304050607080930
:10483C000A0B0C0D0E0F10100102000000000000FE
:10484C00000000000000000000000000000000005C
:10485C00000000000000000000000000000000004C
:10486C00000000000010000000100000001000000C
:10487C0000100000001000000010000000000000FC
:10488C0000100000000000000000000000280000E4
:10489C0000280000002800000000000000000000BC
:1048AC0000000000000000000000000000000000FC
:1048BC00000000000024000000240000007C000028
:1048CC000024000000480000007C000000480000AC
:1048DC00004800000000000000000000003800004C
:1048EC0000540000005000000038000000140000CC
:1048FC0000540000005400000038000000100000BC
:10490C0000000000002000000054000000580000CF
:10491C0000300000002800000054000000140000CB
:10492C000008000000000000000000000010000063
:10493C0000280000002800000010000000340000D7
:10494C000048000000480000003400000000000097
:10495C00000000000010000000100000001000001B
:10496C00000000000000000000000000000000003B
:10497C000000000000000000000000000008000023
:10498C0000100000002000000020000000200000AB
:10499C00002000000020000000200000001000009B
:1049AC0000080000002000000010000000080000BB
:1049BC0000080000000800000008000000080000CB
:1049CC000008000000100000002000000010000093
:1049DC00003800000010000000280000000000005B
:1049EC0000000000000000000000000000000000BB
:1049FC00000000000000000000000000001000009B
:104A0C0000100000007C00000010000000100000EE
:104A1C00000000000000000000000000000000008A
:104A2C00000000000000000000000000000000007A
:104A3C00000000000000000000100000001000004A
:104A4C00001000000000000000000000000000004A
:104A5C000000000000000000003800000000000012
:104A6C00000000000000000000000000000000003A
:104A7C00000000000000000000000000000000002A
:104A8C00000000000000000000100000000000000A
:104A9C0000000000000800000008000000100000EA
:104AAC0000100000001000000010000000200000AA
:104ABC000020000000000000000000000038000092
:104ACC0000440000004400000054000000440000BA
:104ADC00004400000044000000380000000000000A
:104AEC00000000000010000000300000005000002A
:104AFC00001000000010000000100000001000006A
:104B0C000010000000000000000000000038000051
:104B1C0000440000004400000004000000080000F5
:104B2C000010000000200000007C000000000000CD
:104B3C0000000000003800000044000000040000E9
:104B4C0000180000000400000004000000440000F5
:104B5C000038000000000000000000000008000009
:104B6C000018000000280000002800000048000089
:104B7C00007C00000008000000080000000000009D
:104B8C0000000000007C000000400000004000001D
:104B9C000078000000040000000400000044000045
:104BAC000038000000000000000000000038000089
:104BBC0000440000004000000078000000440000A9
:104BCC000044000000440000003800000000000019
:104BDC0000000000007C0000000400000008000041
:104BEC000010000000100000002000000020000059
:104BFC000020000000000000000000000038000051
:104C0C000044000000440000003800000044000094
:104C1C0000440000004400000038000000000000C8
:104C2C0000000000003800000044000000440000B8
:104C3C0000440000003C00000004000000440000A0
:104C4C000038000000000000000000000000000020
:104C5C000000000000100000000000000000000038
:104C6C000000000000000000001000000000000028
:104C7C000000000000000000000000000000000028
:104C8C000010000000000000000000000000000008
:104C9C0000100000001000000010000000000000D8
:104CAC0000000000000C000000300000004000007C
:104CBC0000300000000C00000000000000000000AC
:104CCC0000000000000000000000000000000000D8
:104CDC00007C000000000000007C000000000000D0
:104CEC0000000000000000000000000000000000B8
:104CFC00000000000060000000180000000400002C
:104D0C00001800000060000000000000000000001F
:104D1C000000000000380000004400000004000007
:104D2C00000800000010000000100000000000004F
:104D3C00001000000000000000000000003800001F
:104D4C0000440000004C000000540000005C000017
:104D5C00004000000040000000380000000000008F
:104D6C0000000000001000000028000000280000D7
:104D7C000028000000280000007C00000044000017
:104D8C00004400000000000000000000007800005B
:104D9C0000440000004400000078000000440000C3
:104DAC0000440000004400000078000000000000F7
:104DBC00000000000038000000440000004000002B
:104DCC0000400000004000000040000000440000D3
:104DDC00003800000000000000000000007000001F
:104DEC0000480000004400000044000000440000A3
:104DFC0000440000004800000070000000000000AB
:104E0C0000000000007C000000400000004000009A
:104E1C00007C00000040000000400000004000004A
:104E2C00007C00000000000000000000007C00007E
:104E3C00004000000040000000780000004000002E
:104E4C000040000000400000004000000000000096
:104E5C00000000000038000000440000004000008A
:104E6C0000400000005C0000004400000044000012
:104E7C0000380000000000000000000000440000AA
:104E8C000044000000440000007C000000440000CE
:104E9C00004400000044000000440000000000003A
:104EAC00000000000038000000100000001000009E
:104EBC0000100000001000000010000000100000A6
:104ECC00003800000000000000000000000400009A
:104EDC0000040000000400000004000000040000B6
:104EEC000004000000440000003800000000000036
:104EFC0000000000004400000048000000500000CA
:104F0C000060000000500000004800000048000055
:104F1C000044000000000000000000000040000001
:104F2C000040000000400000004000000040000075
:104F3C000040000000400000007C00000000000069
:104F4C000000000000440000006C0000006C000039
:104F5C000054000000440000004400000044000025
:104F6C0000440000000000000000000000440000AD
:104F7C0000640000006400000054000000540000B5
:104F8C00004C0000004C0000004400000000000039
:104F9C000000000000380000004400000044000045
:104FAC0000440000004400000044000000440000E5
:104FBC000038000000000000000000000078000035
:104FCC000044000000440000004400000078000091
:104FDC000040000000400000004000000000000005
:104FEC0000000000003800000044000000440000F5
:104FFC000044000000440000004400000054000085
:10500C0000380000000400000000000000780000E0
:10501C000044000000440000004400000078000040
:10502C0000480000004800000044000000000000A0
:10503C0000000000003800000044000000400000A8
:10504C0000300000000800000004000000440000D4
:10505C00003800000000000000000000007C000090
:10506C0000100000001000000010000000100000F4
:10507C0000100000001000000010000000000000F4
:10508C000000000000440000004400000044000048
:10509C0000440000004400000044000000440000F4
:1050AC000038000000000000000000000044000078
:1050BC00004400000044000000280000002800000C
:1050CC00002800000010000000100000000000008C
:1050DC0000000000004400000044000000540000E8
:1050EC000054000000540000006C00000028000078
:1050FC000028000000000000000000000044000038
:10510C000028000000280000001000000010000023
:10511C0000280000002800000044000000000000EF
:10512C0000000000004400000044000000280000C3
:10513C00002800000010000000100000001000000B
:10514C00001000000000000000000000007C0000C7
:10515C000004000000080000001000000010000017
:10516C000020000000400000007C00000000000057
:10517C0000000000001800000010000000100000EB
:10518C0000100000001000000010000000100000D3
:10519C0000100000001000000018000000200000AB
:1051AC0000200000001000000010000000100000A3
:1051BC0000100000000800000008000000000000C3
:1051CC000000000000300000001000000010000083
:1051DC000010000000100000001000000010000083
:1051EC000010000000100000003000000010000053
:1051FC00002800000028000000440000000000000F
:10520C000000000000000000000000000000000092
:10521C000000000000000000000000000000000082
:10522C000000000000000000000000000000000072
:10523C00000000000000000000FE00000020000044
:10524C000010000000000000000000000000000042
:10525C000000000000000000000000000000000042
:10526C0000000000000000000000000000380000FA
:10527C0000440000003C000000440000004C000012
:10528C00003400000000000000000000004000009E
:10529C0000400000005800000064000000440000C2
:1052AC0000440000006400000058000000000000F2
:1052BC0000000000000000000000000000380000AA
:1052CC0000440000004000000040000000440000CA
:1052DC000038000000000000000000000004000086
:1052EC000004000000340000004C000000440000EA
:1052FC0000440000004C00000034000000000000DE
:10530C000000000000000000000000000038000059
:10531C0000440000007C000000400000004400003D
:10532C00003800000000000000000000000C00002D
:10533C0000100000007C00000010000000100000B5
:10534C000010000000100000001000000000000021
:10535C00000000000000000000000000003400000D
:10536C00004C00000044000000440000004C000011
:10537C000034000000040000007800000040000031
:10538C0000400000005800000064000000440000D1
:10539C000044000000440000004400000000000035
:1053AC000000000000100000000000000070000071
:1053BC0000100000001000000010000000100000A1
:1053CC0000100000000000000000000000100000B1
:1053DC000000000000700000001000000010000031
:1053EC000010000000100000001000000010000071
:1053FC0000E00000004000000040000000480000F9
:10540C000050000000600000005000000048000048
:10541C0000440000000000000000000000700000CC
:10542C000010000000100000001000000010000030
:10543C000010000000100000001000000000000030
:10544C0000000000000000000000000000780000D8
:10545C0000540000005400000054000000540000F0
:10546C0000540000000000000000000000000000DC
:10547C000000000000580000006400000044000020
:10548C000044000000440000004400000000000044
:10549C0000000000000000000000000000380000C8
:1054AC0000440000004400000044000000440000E0
:1054BC0000380000000000000000000000000000A8
:1054CC0000000000005800000064000000440000D0
:1054DC000044000000640000005800000040000080
:1054EC00004000000000000000000000003400003C
:1054FC00004C00000044000000440000004C000080
:10550C000034000000040000000400000000000053
:10551C000000000000580000006400000040000083
:10552C0000400000004000000040000000000000AF
:10553C000000000000000000000000000038000027
:10554C00004400000030000000080000004400008F
:10555C0000380000000000000000000000200000E7
:10556C000020000000780000002000000020000057
:10557C0000200000002000000018000000000000C7
:10558C0000000000000000000000000000440000CB
:10559C00004400000044000000440000004C0000E7
:1055AC0000340000000000000000000000000000BB
:1055BC00000000000044000000440000002800002F
:1055CC00002800000028000000100000000000006F
:1055DC00000000000000000000000000005400006B
:1055EC000054000000540000006C00000028000073
:1055FC000028000000000000000000000000000077
:10560C000000000000440000002800000010000012
:10561C000010000000280000004400000000000002
:10562C00000000000000000000000000004400002A
:10563C0000440000002800000028000000100000BA
:10564C0000100000001000000060000000000000CE
:10565C0000000000007C00000008000000100000AA
:10566C000020000000400000007C00000000000052
:10567C0000000000001800000010000000100000E6
:10568C0000100000002000000020000000100000AE
:10569C0000100000001000000018000000100000B6
:1056AC0000100000001000000010000000100000AE
:1056BC00001000000010000000100000001000009E
:1056CC00001000000030000000100000001000006E
:1056DC00001000000008000000080000001000008E
:1056EC00001000000010000000300000000000005E
:1056FC00000000000000000000740000004C0000DE
:10570C00000000000000000000000000000000008D
:10571C000000000000000000000000000102030473
:10572C00060708090000000001020304232D302B9A
:10573C002000686C4C006566674546470030313286
:10574C0033343536373839414243444546003031DD
:10575C00323334353637383961626364656600003C
:04576C0035010008FB
:04577000110100081B
:10577400070A0000484800086400000064000000B4
:105784000024F400100000000100000020000020AC
:105794000000000000000000000000000000000005
:1057A40000000000000000000000000000000000F5
:1057B40000000000000000000000000000000000E5
:1057C40000000000000000000000000000000000D5
:1057D40000000000000000000000000000000000C5
:1057E40000000000000000000000000000000000B5
:0400000508001AF9DC
:00000001FF
