:020000040800F2
:1000000000500020451400088913000895130008CB
:100010009B130008A1130008A713000800000000AC
:10002000000000000000000000000000AD13000808
:10003000B913000800000000C5130008D113000820
:100040008D1400088D1400088D1400088D1400080C
:100050008D1400088D1400088D1400088D140008FC
:100060008D1400088D1400088D1400088D140008EC
:100070008D1400088D1400088D1400088D140008DC
:100080008D1400088D1400088D1400088D140008CC
:100090008D1400088D1400088D1400088D140008BC
:1000A0008D1400088D1400088D1400088D140008AC
:1000B0008D1400088D1400088D1400088D1400089C
:1000C0008D1400088D1400088D1400088D1400088C
:1000D0008D1400088D1400088D1400088D1400087C
:1000E0008D1400088D1400088D1400080000000015
:1000F0000000000000000000000000000000000000
:0C01000000000000000000005FF808F1A3
:1001100010B5054C237833B9044B13B10448AFF341
:1001200000800123237010BD140000200000000097
:100130007C2F000808B5034B1BB103490348AFF3FC
:10014000008008BD00000000180000207C2F00087F
:1001500081F0004102E000BF83F0004330B54FEA78
:1001600041044FEA430594EA050F08BF90EA020FE5
:100170001FBF54EA000C55EA020C7FEA645C7FEA78
:10018000655C00F0E2804FEA5454D4EB5555B8BF9B
:100190006D420CDD2C4480EA020281EA030382EA0C
:1001A000000083EA010180EA020281EA0303362D9E
:1001B00088BF30BD11F0004F4FEA01314FF4801C71
:1001C0004CEA113102D0404261EB410113F0004F83
:1001D0004FEA03334CEA133302D0524263EB43033A
:1001E00094EA050F00F0A780A4F10104D5F1200ED8
:1001F0000DDB02FA0EFC22FA05F2801841F1000133
:1002000003FA0EF2801843FA05F359410EE0A5F106
:1002100020050EF1200E012A03FA0EFC28BF4CF037
:10022000020C43FA05F3C01851EBE37101F00045ED
:1002300007D54FF0000EDCF1000C7EEB00006EEBFA
:100240000101B1F5801F1BD3B1F5001F0CD3490884
:100250005FEA30004FEA3C0C04F101044FEA4452DB
:1002600012F5800F80F09A80BCF1004F08BF5FEA62
:10027000500C50F1000041EB045141EA050130BD42
:100280005FEA4C0C404141EB010111F4801FA4F1E5
:100290000104E9D191F0000F04BF01460020B1FA3A
:1002A00081F308BF2033A3F10B03B3F120020CDA72
:1002B0000C3208DD02F1140CC2F10C0201FA0CF050
:1002C00021FA02F10CE002F11402D8BFC2F1200CB5
:1002D00001FA02F120FA0CFCDCBF41EA0C0190406B
:1002E000E41AA2BF01EB0451294330BD6FEA0404B4
:1002F0001F3C1CDA0C340EDC04F11404C4F120029F
:1003000020FA04F001FA02F340EA030021FA04F3B0
:1003100045EA030130BDC4F10C04C4F1200220FA07
:1003200002F001FA04F340EA0300294630BD21FA45
:1003300004F0294630BD94F0000F83F4801306BF0B
:1003400081F480110134013D4EE77FEA645C18BFFF
:100350007FEA655C29D094EA050F08BF90EA020F96
:1003600005D054EA000C04BF1946104630BD91EA8E
:10037000030F1EBF0021002030BD5FEA545C05D191
:100380004000494128BF41F0004130BD14F58004D0
:100390003CBF01F5801130BD01F0004545F0FE4144
:1003A00041F470014FF0000030BD7FEA645C1ABF79
:1003B000194610467FEA655C1CBF0B46024650EAB0
:1003C000013406BF52EA033591EA030F41F40021DC
:1003D00030BD00BF90F0000F04BF0021704730B562
:1003E0004FF4806404F132044FF000054FF0000137
:1003F00050E700BF90F0000F04BF0021704730B5F8
:100400004FF4806404F1320410F0004548BF4042CC
:100410004FF000013EE700BF42004FEAE2014FEA21
:1004200031014FEA02701FBF12F07F4393F07F4FFC
:1004300081F06051704732F07F4208BF704793F0FF
:100440007F4F04BF41F40021704730B54FF4607412
:1004500001F0004521F000411CE700BF50EA010215
:1004600008BF704730B54FF000050AE050EA0102BE
:1004700008BF704730B511F0004502D5404261EB2E
:1004800041014FF4806404F132045FEA915C3FF46F
:10049000D8AE4FF003025FEADC0C18BF03325FEA0C
:1004A000DC0C18BF033202EBDC02C2F1200300FABD
:1004B00003FC20FA02F001FA03FE40EA0E0021FAE2
:1004C00002F11444BDE600BF70B54FF0FF0C4CF4D0
:1004D000E06C1CEA11541DBF1CEA135594EA0C0F82
:1004E00095EA0C0F00F0DEF82C4481EA030621EABD
:1004F0004C5123EA4C5350EA013518BF52EA0335F8
:1005000041F4801143F4801338D0A0FB02CE4FF0A9
:100510000005E1FB02E506F00042E0FB03E54FF0D9
:100520000006E1FB03569CF0000F18BF4EF0010ED1
:10053000A4F1FF04B6F5007F64F5407404D25FEACD
:100540004E0E6D4146EB060642EAC62141EA555180
:100550004FEAC52040EA5E504FEACE2EB4F1FD0CC2
:1005600088BFBCF5E06F1ED8BEF1004F08BF5FEA40
:10057000500E50F1000041EB045170BD06F00046F2
:1005800046EA010140EA020081EA0301B4EB5C049F
:10059000C2BFD4EB0C0541EA045170BD41F4801197
:1005A0004FF0000E013C00F3AB8014F1360FDEBFBC
:1005B000002001F0004170BDC4F10004203C35DA98
:1005C0000C341BDC04F11404C4F1200500FA05F31B
:1005D00020FA04F001FA05F240EA020001F00042BC
:1005E00021F0004110EBD37021FA04F642EB060132
:1005F0005EEA430E08BF20EAD37070BDC4F10C045C
:10060000C4F1200500FA04F320FA05F001FA04F21F
:1006100040EA020001F0004110EBD37041F100010B
:100620005EEA430E08BF20EAD37070BDC4F1200516
:1006300000FA05F24EEA020E20FA04F301FA05F27E
:1006400043EA020321FA04F001F0004121FA04F226
:1006500020EA020000EBD3705EEA430E08BF20EAF6
:10066000D37070BD94F0000F0FD101F00046400030
:1006700041EB010111F4801F08BF013CF7D041EAB2
:10068000060195F0000F18BF704703F000465200B6
:1006900043EB030313F4801F08BF013DF7D043EA87
:1006A0000603704794EA0C0F0CEA135518BF95EA3D
:1006B0000C0F0CD050EA410618BF52EA4306D1D1C4
:1006C00081EA030101F000414FF0000070BD50EAE3
:1006D000410606BF1046194652EA430619D094EA6D
:1006E0000C0F02D150EA013613D195EA0C0F05D157
:1006F00052EA03361CBF104619460AD181EA0301AB
:1007000001F0004141F0FE4141F470014FF0000062
:1007100070BD41F0FE4141F4780170BD70B54FF0FD
:10072000FF0C4CF4E06C1CEA11541DBF1CEA13557D
:1007300094EA0C0F95EA0C0F00F0A7F8A4EB05045F
:1007400081EA030E52EA03354FEA013100F0888056
:100750004FEA03334FF0805545EA131343EA12631F
:100760004FEA022245EA111545EA10654FEA0026D4
:100770000EF000419D4208BF964244F1FD0404F58D
:10078000407402D25B084FEA3202B61A65EB0305E9
:100790005B084FEA32024FF480104FF4002CB6EBA6
:1007A000020E75EB030E22BFB61A754640EA0C0026
:1007B0005B084FEA3202B6EB020E75EB030E22BF66
:1007C000B61A754640EA5C005B084FEA3202B6EBA7
:1007D000020E75EB030E22BFB61A754640EA9C0066
:1007E0005B084FEA3202B6EB020E75EB030E22BF36
:1007F000B61A754640EADC0055EA060E18D04FEAF4
:10080000051545EA16754FEA06164FEAC30343EA93
:1008100052734FEAC2025FEA1C1CC0D111F4801F60
:100820000BD141EA00014FF000004FF0004CB6E759
:1008300011F4801F04BF01430020B4F1FD0C88BFF8
:10084000BCF5E06F3FF6AFAEB5EB030C04BFB6EB03
:10085000020C5FEA500C50F1000041EB045170BDF6
:100860000EF0004E4EEA113114EB5C04C2BFD4EB23
:100870000C0541EA045170BD41F480114FF0000EA7
:10088000013C90E645EA060E8DE60CEA135594EA23
:100890000C0F08BF95EA0C0F3FF43BAF94EA0C0F26
:1008A0000AD150EA01347FF434AF95EA0C0F7FF49B
:1008B00025AF104619462CE795EA0C0F06D152EAEF
:1008C00003353FF4FDAE1046194622E750EA4106D3
:1008D00018BF52EA43067FF4C5AE50EA41047FF4E4
:1008E0000DAF52EA43057FF4EBAE12E74FEA410247
:1008F000B2F1E04324BFB3F5001CDCF1FE5C0DD97E
:1009000001F0004C4FEAC0024CEA5070B2F1004FC7
:1009100040EB830008BF20F00100704711F0804FCA
:1009200021D113F13872BCBF01F00040704741F48F
:1009300080114FEA5252C2F11802C2F1200C10FA93
:100940000CF320FA02F018BF40F001004FEAC12377
:100950004FEAD32303FA0CFC40EA0C0023FA02F31B
:100960004FEA4303CCE77FEA625307D150EA0133F1
:100970001EBF4FF0FE4040F44000704701F00040C1
:1009800040F0FE4040F40000704700BF42000ED22D
:10099000B2F1FE4F0BD34FF09E03B3EB126209D4BA
:1009A0004FEA002343F0004323FA02F070474FF070
:1009B0000000704712F1610F01D1420202D14FF0E5
:1009C000FF3070474FF00000704700BF80B586B021
:1009D00004AF0346FB800B46BB8013467B80BA887E
:1009E000F9884FF4FA73029301230193BB1C00931F
:1009F0000123034801F066F900BF0837BD4680BDFA
:100A00003000002080B582B000AF0346FB71FB7957
:100A10009BB21A4600217820FFF7D8FF00BF0837A5
:100A2000BD4680BD80B584B000AF78600B46FB70DA
:100A30000023FB600023FB600CE0FB687A68134432
:100A40001B789BB21A4640217820FFF7BFFFFB6856
:100A50000133FB60FB78FA689A42EEDB00BF103787
:100A6000BD4680BD80B485B000AF0346FB71002356
:100A7000FB600DE0FB79002B01D1002100E0FF219C
:100A8000084AFB6813440A461A70FB680133FB608E
:100A9000FB68B3F5806FEDD300BF1437BD4680BC53
:100AA000704700BF9000002080B582B000AF0023E7
:100AB000FB7116E0FB79503BDBB21846FFF7A2FF53
:100AC0000020FFF79FFF1020FFF79CFFFB79DB0161
:100AD000074A134480211846FFF7A4FFFB7901332E
:100AE000FB71FB79072BE5D900BF0837BD4680BDF8
:100AF0009000002080B582B000AF78607B68184617
:100B000000F028FD00BF0837BD4680BD80B500AFAE
:100B10006420FFF7EFFFAE20FFF774FF2020FFF700
:100B200071FF0020FFF76EFFB020FFF76BFFC820BA
:100B3000FFF768FF0020FFF765FF1020FFF762FF57
:100B40004020FFF75FFF8120FFF75CFFFF20FFF7EA
:100B500059FFA120FFF756FFA620FFF753FFA8205B
:100B6000FFF750FF3F20FFF74DFFA420FFF74AFF9C
:100B7000D320FFF747FF0020FFF744FFD520FFF702
:100B800041FFF020FFF73EFFD920FFF73BFF222077
:100B9000FFF738FFDA20FFF735FF1220FFF732FFAB
:100BA000DB20FFF72FFF2020FFF72CFF8D20FFF722
:100BB00029FF1420FFF726FFAF20FFF723FF0020B7
:100BC000FFF750FFFFF770FF054B00221A60044B40
:100BD00000225A60024B01225A7200BF80BD00BF42
:100BE0008400002080B483B000AF0346FB710B4645
:100BF000BB7113467B7197F90730002B48DBBB793B
:100C00003F2B45D8254B1B7A002B06D07B79002B38
:100C10000CBF01230023DBB27B717B79012B1AD13E
:100C2000FA79BB79DB08D8B20346DB0113441C4ACE
:100C3000D35C5AB2BB7903F00703012101FA03F335
:100C40005BB2134359B2FA790346DB011344C9B2CC
:100C5000134AD1541DE0FA79BB79DB08D8B20346B8
:100C6000DB0113440E4AD35C5AB2BB7903F007038D
:100C7000012101FA03F35BB2DB435BB2134059B2CB
:100C8000FA790346DB011344C9B2054AD15400E0A6
:100C900000BF0C37BD4680BC704700BF84000020F9
:100CA0009000002080B483B000AF03460A46FB7179
:100CB0001346BB71FB79054A1360BB79034A536045
:100CC00000BF0C37BD4680BC704700BF84000020C9
:100CD00080B500AF0020FFF7C5FEFFF7E5FE00215D
:100CE0000020FFF7DFFF00BF80BD000090B589B096
:100CF00000AF0446381D80E806001A462346FB7301
:100D00001346BB73FB7B1F2B02D9FB7B7E2B01D9C8
:100D1000002382E0434B1B683A791344802B05D8AB
:100D2000404B5B687A791344402B1AD93D4B1B68C2
:100D30003A791344802B12D93A4B5B687A79134481
:100D40003F2B0AD8374B5B68DAB27B791344DBB2AE
:100D500019460020FFF7A6FF01E0FFF7B9FF0023C7
:100D60005BE00023FB614CE0BA68FB7B203B7979B8
:100D700001FB03F31946FB690B449B0013441B68FA
:100D80007B610023BB6134E07A69BB6902FA03F33B
:100D900003F40043002B12D0224B1B68DAB2BB696C
:100DA000DBB21344D8B21F4B5B68DAB2FB69DBB22B
:100DB0001344DBB2BA7B1946FFF714FF16E0194B58
:100DC0001B68DAB2BB69DBB21344D8B2154B5B685F
:100DD000DAB2FB69DBB21344D9B2BB7B002B0CBF88
:100DE00001230023DBB21A46FFF7FCFEBB69013387
:100DF000BB613B791A46BB699342C5D3FB6901339A
:100E0000FB617B791A46FB699342ADD3054B1B68A6
:100E10003A791344034A1360FB7B18462437BD46D6
:100E200090BD00BF8400002080B584B000AFF860A2
:100E3000381D80E80600FB7012E0FB681878FB782C
:100E40003A1D06CAFFF752FF03461A46FB681B7895
:100E50009A4202D0FB681B7808E0FB680133FB6014
:100E6000FB681B78002BE8D1FB681B78184610370D
:100E7000BD4680BD80B584B000AFF8607A601A4688
:100E80000B467B8113463B8100221021094800F06C
:100E9000C1FD07F10A014FF448730122F86801F01F
:100EA00084FE01221021034800F0B4FD00BF10377A
:100EB000BD4680BD0008014080B582B000AF03464A
:100EC000FB80F9880123044A0448FFF7D3FF00BFE1
:100ED0000837BD4680BD00BF000C014090040020D3
:100EE00090B585B000AF03463960FB710023FB600D
:100EF000FB79002B04D14FF40050FFF7DDFF16E023
:100F0000FB79012B04D142F20200FFF7D5FF0EE07E
:100F1000FB79022B04D142F22800FFF7CDFF06E057
:100F2000FB79032B03D142F22000FFF7C5FF38689D
:100F3000FFF772FA18A3D3E90023FFF7C5FA0346B7
:100F40000C4618462146FFF7D1FC03463B60386843
:100F5000FFF71CFD0346FB60F968114BA3FB01235F
:100F6000DA0B13461B049B1ACA1A93B243F480434C
:100F70009BB21846FFF7A0FFFB68094AA2FB0323B8
:100F8000DB0B9BB243F480439BB21846FFF794FF00
:100F900000BF1437BD4690BD3A8C30E28E792540B3
:100FA0000180008080B500AF00F072FA00F02AF8EE
:100FB00000F0CAF800F062F800F08EF8FFF7A6FD26
:100FC0000020FFF74FFD0B4A012306CA0A48FFF72E
:100FD0002BFFFFF769FD09490020FFF781FF4FF460
:100FE0000051074800F02EFD4FF47A7000F0B2FA7D
:100FF000F1E700BF00000020982F00081283803E18
:101000000010014080B590B000AF07F1180328220E
:101010000021184601F0AAFF3B1D00221A605A6009
:101020009A60DA601A610223BB610123BB6210235C
:10103000FB6200237B6307F11803184601F04CF9AB
:101040000346002B01D000F0EBF80F237B60002358
:10105000BB600023FB6000233B6100237B613B1DE1
:101060000021184601F0B8FB0346002B01D000F028
:10107000D7F800BF4037BD4680BD000080B500AF47
:10108000124B134A1A60114B124A5A600F4B00223E
:101090009A600E4B0022DA600C4B4FF480421A61CA
:1010A0000A4B00225A61094B00229A61074B002229
:1010B000DA61064B00221A62044800F0DBFC0346AA
:1010C000002B01D000F0ACF800BF80BD3000002044
:1010D00000540040A086010080B500AF184B194AAB
:1010E0001A60174B4FF482725A60154B00229A60B7
:1010F000134B4FF40062DA60114B02221A61104B5D
:1011000000225A610E4B4FF400729A610C4B302250
:10111000DA610B4B00221A62094B00225A62084B1B
:1011200000229A62064B0A22DA62054801F0DCFCD2
:101130000346002B01D000F073F800BF80BD00BF54
:10114000900400200030014080B588B000AF07F166
:10115000100300221A605A609A60DA602D4B9B6976
:101160002C4A43F0100393612A4B9B6903F0100350
:10117000FB60FB68274B9B69264A43F0040393619D
:10118000244B9B6903F00403BB60BB68214B9B6944
:10119000204A43F0080393611E4B9B6903F0080348
:1011A0007B607B6800224FF400511B4800F032FC4A
:1011B00000221021194800F02DFC4FF400533B6130
:1011C00001237B610023BB610223FB6107F1100354
:1011D0001946114800F0C4FA08233B6100237B61E3
:1011E0000023BB6107F1100319460C4800F0B8FA60
:1011F00010233B6101237B610023BB610223FB6160
:1012000007F110031946054800F0AAFA00BF20377D
:10121000BD4680BD001002400010014000080140A2
:1012200080B400AF00BFBD4680BC704780B485B0BD
:1012300000AF154B9B69144A43F001039361124BB5
:101240009B6903F00103BB60BB680F4BDB690E4A6F
:1012500043F08053D3610C4BDB6903F080537B6018
:101260007B680A4B5B68FB60FB6823F0E063FB6014
:10127000FB6843F00073FB60044AFB68536000BFE7
:101280001437BD4680BC704700100240000001408A
:1012900080B588B000AF786007F1100300221A60B3
:1012A0005A609A60DA607B681B68154A934223D1C2
:1012B000144B9B69134A43F008039361114B9B69DC
:1012C00003F00803FB60FB68C0233B6112237B61D2
:1012D0000323FB6107F1100319460B4800F040FAA5
:1012E000084BDB69074A43F40013D361054BDB6904
:1012F00003F40013BB60BB6800BF2037BD4680BD50
:101300000054004000100240000C014080B588B03D
:1013100000AF786007F1100300221A605A609A60EB
:10132000DA607B681B68154A934223D1144B9B6992
:10133000134A43F480539361114B9B6903F4805328
:10134000FB60FB680E4B9B690D4A43F004039361FD
:101350000B4B9B6903F00403BB60BB68A0233B619C
:1013600002237B610323FB6107F110031946054843
:1013700000F0F6F900BF2037BD4680BD00300140C7
:10138000001002400008014080B400AF00BFBD461D
:1013900080BC704780B400AFFEE780B400AFFEE7CA
:1013A00080B400AFFEE780B400AFFEE780B400AFCA
:1013B00000BFBD4680BC704780B400AF00BFBD46D3
:1013C00080BC704780B400AF00BFBD4680BC704792
:1013D00080B500AF00F0A2F800BF80BD80B400AFC0
:1013E000154B1B68144A43F001031360124B5A68F3
:1013F0001149124B13404B600F4B1B680E4A23F0F0
:10140000847323F4803313600B4B1B680A4A23F464
:1014100080231360084B5B68074A23F4FE03536084
:10142000054B4FF41F029A60054B4FF000629A6023
:1014300000BFBD4680BC7047001002400000FFF8AE
:1014400000ED00E0002103E00B4B5B5843500431FA
:101450000A480B4B42189A42F6D30A4A02E000238C
:1014600042F8043B084B9A42F9D3FFF7B7FF01F06B
:1014700059FDFFF797FD7047B43E000800000020BB
:101480001400002014000020EC040020FEE70000FF
:1014900080B500AF084B1B68074A43F01003136088
:1014A000032000F029F9002000F008F8FFF7BEFE45
:1014B0000023184680BD00BF0020024080B582B0E6
:1014C00000AF7860124B1A68124B1B7819464FF424
:1014D0007A73B3FBF1F3B2FBF3F3184600F033F980
:1014E0000346002B01D001230EE07B680F2B0AD8A6
:1014F000002279684FF0FF3000F009F9064A7B6856
:101500001360002300E0012318460837BD4680BD64
:1015100008000020100000200C00002080B400AF64
:10152000054B1B781A46054B1B681344034A13608E
:1015300000BFBD4680BC704710000020E8040020BA
:1015400080B400AF024B1B681846BD4680BC704794
:10155000E804002080B584B000AF7860FFF7F0FFAA
:10156000B8607B68FB60FB68B3F1FF3F05D0094BB7
:101570001B781A46FB681344FB6000BFFFF7E0FFCF
:101580000246BB68D31AFA689A42F7D800BF1037F0
:10159000BD4680BD1000002080B485B000AF7860EB
:1015A0007B6803F00703FB600C4BDB68BB60BA6829
:1015B0004FF6FF031340BB60FB681A02BB6813437E
:1015C00043F0BF6343F40033BB60044ABB68D3609D
:1015D00000BF1437BD4680BC704700BF00ED00E07F
:1015E00080B400AF044BDB681B0A03F00703184606
:1015F000BD4680BC704700BF00ED00E080B483B002
:1016000000AF03463960FB7197F90730002B0ADB06
:101610003B68DAB20C4997F907301201D2B20B4499
:1016200083F800230AE03B68DAB20849FB7903F04B
:101630000F03043B1201D2B20B441A7600BF0C37E1
:10164000BD4680BC704700BF00E100E000ED00E057
:1016500080B489B000AFF860B9607A60FB6803F0CD
:101660000703FB61FB69C3F10703042B28BF0423B5
:10167000BB61FB690433062B02D9FB69033B00E025
:1016800000237B614FF0FF32BB6902FA03F3DA43B8
:10169000BB681A407B699A404FF0FF317B6901FAC1
:1016A00003F3D9437B680B40134318462437BD46E8
:1016B00080BC704780B582B000AF78607B68013B2A
:1016C000B3F1807F01D301230FE00A4A7B68013B1D
:1016D00053600F214FF0FF30FFF790FF054B0022C2
:1016E0009A60044B07221A60002318460837BD464B
:1016F00080BD00BF10E000E080B582B000AF786030
:101700007868FFF749FF00BF0837BD4680BD80B548
:1017100086B000AF0346B9607A60FB7300237B613B
:10172000FFF75EFF78617A68B9687869FFF790FF24
:10173000024697F90F3011461846FFF75FFF00BFCA
:101740001837BD4680BD80B582B000AF786078683C
:10175000FFF7B0FF034618460837BD4680BD0000BE
:1017600080B48BB000AF7860396000237B620023C7
:101770003B6227E101227B6A02FA03F3FB613B68CB
:101780001B68FA691340BB61BA69FB699A4240F071
:1017900016813B685B68122B34D0122B0DD8022BBC
:1017A0002BD0022B04D8002B31D0012B1CD048E0C9
:1017B000032B43D0112B1BD043E0894A934226D000
:1017C000874A934206D8874A934220D0864A93425A
:1017D0001DD036E0854A934219D0854A934216D0EF
:1017E000844A934213D02CE03B68DB683B6228E0DC
:1017F0003B68DB6804333B6223E03B68DB6808330B
:101800003B621EE03B68DB680C333B6219E03B68DF
:101810009B68002B02D104233B6212E03B689B686B
:10182000012B05D108233B627B68FA691A6108E045
:1018300008233B627B68FA695A6102E000233B623D
:1018400000BFBB69FF2B01D87B6801E07B680433D4
:101850007B61BB69FF2B02D87B6A9B0002E07B6A3D
:10186000083B9B003B617B691A680F213B6901FAC9
:1018700003F3DB431A40396A3B6901FA03F31A4365
:101880007B691A603B685B6803F08053002B00F0B3
:101890009680594B9B69584A43F001039361564B1C
:1018A0009B6903F00103BB60BB68544A7B6A9B08D9
:1018B000023352F82330FB607B6A03F003039B0082
:1018C0000F2202FA03F3DB43FA681340FB607B68E4
:1018D0004B4A934213D07B684A4A93420DD07B68AF
:1018E000494A934207D07B68484A934201D1032377
:1018F00006E0042304E0022302E0012300E00023C9
:101900007A6A02F0030292009340FA681343FB6084
:101910003A497B6A9B080233FA6841F823203B6806
:101920005B6803F48033002B06D0394B1A683849C2
:10193000BB6913430B6006E0354B1A68BB69DB4398
:10194000334913400B603B685B6803F40033002BA2
:1019500006D02F4B5A682E49BB6913434B6006E0F3
:101960002B4B5A68BB69DB43294913404B603B68EA
:101970005B6803F48013002B06D0254B9A6824493A
:10198000BB6913438B6006E0214B9A68BB69DB435C
:101990001F4913408B603B685B6803F40013002B06
:1019A00006D01B4BDA681A49BB691343CB6006E0CB
:1019B000174BDA68BB69DB4315491340CB607B6A80
:1019C00001337B623B681A687B6A22FA03F3002BBF
:1019D0007FF4D0AE00BF2C37BD4680BC704700BF3F
:1019E0000000211000001110000012100000311042
:1019F00000003210000022100010024000000140E0
:101A000000080140000C014000100140001401409A
:101A10000004014080B483B000AF78600B467B8047
:101A200013467B707B78002B03D07A887B681A6121
:101A300003E07B881A047B681A6100BF0C37BD463F
:101A400080BC704780B483B000AF78600B467B8069
:101A50007B68DA687B881340002B03D07A887B6828
:101A60005A6102E07A887B681A6100BF0C37BD4674
:101A700080BC704780B584B000AF78607B68002B75
:101A800001D101230FE17B6893F83D30DBB2002BDD
:101A900006D17B68002283F83C207868FFF7F8FBCA
:101AA0007B68242283F83D207B681B681A687B686A
:101AB0001B6822F001021A6000F0E4FFF8607B6806
:101AC0005B687B4A934207D8FB687A4A934294BF8B
:101AD00001230023DBB206E0FB68774A934294BF00
:101AE00001230023DBB2002B01D00123DBE0FB68E4
:101AF000724AA2FB03239B0CBB607B681B685B687C
:101B000023F03F017B681B68BA680A435A607B6810
:101B10001B681B6A23F03F017B685B68644A934241
:101B200002D8BB68013309E0BB684FF4967202FB30
:101B300003F3634AA2FB03239B0901337A6812680B
:101B40000B4313627B681B68DB6923F44F4222F06E
:101B5000FF027B685B6856498B420DD8FB68591EB3
:101B60007B685B685B00B1FBF3F30133C3F30B03EA
:101B7000042B38BF04234FE07B689B68002B11D1F6
:101B8000FB68581E7B6859680B465B000B44B0FB32
:101B9000F3F30133C3F30B03002B0CBF012300232A
:101BA000DBB212E0FB68581E7B6859680B469B004D
:101BB0000B4499000B44B0FBF3F30133C3F30B0365
:101BC000002B0CBF01230023DBB2002B01D001232B
:101BD00022E07B689B68002B0ED1FB68581E7B6857
:101BE00059680B465B000B44B0FBF3F30133C3F3BE
:101BF0000B0343F400430FE0FB68581E7B685968F1
:101C00000B469B000B4499000B44B0FBF3F30133EC
:101C1000C3F30B0343F44043796809681343CB6172
:101C20007B681B681B6823F0C0017B68DA697B68EE
:101C30001B6A1A437B681B680A431A607B681B682F
:101C40009B6823F4034323F0FF037A6811697A68E1
:101C5000D26811437A6812680B4393607B681B68F3
:101C6000DB6823F0FF017B685A697B689B691A4334
:101C70007B681B680A43DA607B681B681A687B68AC
:101C80001B6842F001021A607B6800221A647B68BC
:101C9000202283F83D207B6800221A637B680022A3
:101CA00083F83E20002318461037BD4680BD00BF94
:101CB000A08601007F841E00FF083D0083DE1B43D9
:101CC000D34D621080B588B002AFF8600846114667
:101CD0001A4603467B810B463B811346FB80FFF788
:101CE0002FFC7861FB6893F83D30DBB2202B40F08D
:101CF000D9807B690093192301226D49F86800F0AF
:101D000065F90346002B01D00223CCE0FB6893F871
:101D10003C30012B01D10223C5E0FB68012283F88E
:101D20003C20FB681B681B6803F00103012B07D0F4
:101D3000FB681B681A68FB681B6842F001021A60A6
:101D4000FB681B681A68FB681B6822F400621A6053
:101D5000FB68212283F83D20FB68402283F83E2067
:101D6000FB6800221A64FB683A6A5A62FB68BA8C04
:101D70005A85FB685B8D9AB2FB681A85FB684D4AF1
:101D8000DA62F8883A8979897B690193BB6A0093A2
:101D90000346F86800F090F80346002B52D0012368
:101DA00081E07A69B96AF86800F0E6F90346002B29
:101DB0000DD0FB681B6C042B07D1FB681B681A68ED
:101DC000FB681B6842F400721A6001236BE0FB6839
:101DD0005B6A1A78FB681B681A61FB685B6A5A1CAD
:101DE000FB685A62FB681B8D013B9AB2FB681A853F
:101DF000FB685B8D9BB2013B9AB2FB685A85FB681E
:101E00001B685B6903F00403042B1BD1FB681B8D6B
:101E1000002B17D0FB685B6A1A78FB681B681A6195
:101E2000FB685B6A5A1CFB685A62FB681B8D013BAE
:101E30009AB2FB681A85FB685B8D9BB2013B9AB234
:101E4000FB685A85FB681B8D002BAAD17A69B96A99
:101E5000F86800F0D2F90346002B0DD0FB681B6C2C
:101E6000042B07D1FB681B681A68FB681B6842F4E7
:101E700000721A60012316E0FB681B681A68FB6891
:101E80001B6842F400721A60FB68202283F83D2030
:101E9000FB68002283F83E20FB68002283F83C2088
:101EA000002300E0022318461837BD4680BD00BF5E
:101EB000020010000000FFFF80B588B002AFF8609C
:101EC000084611461A4603467B810B463B81134662
:101ED000FB80FB681B681A68FB681B6842F4807211
:101EE0001A607B6A00933B6A00224FF00111F86888
:101EF00000F06CF80346002B01D001235FE07B89E2
:101F0000DBB21A46FB681B6802F0FE021A617B6AAC
:101F10003A6A2D49F86800F0B0F80346002B01D06A
:101F200001234CE000237B61FB681B685B697B61DC
:101F3000FB681B689B697B617B697A6A396AF86810
:101F400000F01AF90346002B0DD0FB681B6C042B24
:101F500007D1FB681B681A68FB681B6842F40072B3
:101F60001A6001232BE0FB88012B05D13B89DAB2F3
:101F7000FB681B681A6121E03B891B0A9BB2DAB23D
:101F8000FB681B681A617A6A396AF86800F0F4F82D
:101F90000346002B0DD0FB681B6C042B07D1FB689C
:101FA0001B681A68FB681B6842F400721A60012300
:101FB00005E03B89DAB2FB681B681A61002318460A
:101FC0001837BD4680BD00BF0200010080B584B057
:101FD00000AFF860B9603B601346FB7125E03B68D9
:101FE000B3F1FF3F21D0FFF7ABFA0246BB69D31A2A
:101FF0003A689A4202D33B68002B16D1FB68002254
:102000001A63FB68202283F83D20FB68002283F8D6
:102010003E20FB681B6C43F02002FB681A64FB68DF
:10202000002283F83C20012323E0BB681B0CDBB2B9
:10203000012B0DD1FB681B685B69DA43BB68134059
:102040009BB2002B0CBF01230023DBB21A460CE02D
:10205000FB681B689B69DA43BB6813409BB2002B8B
:102060000CBF01230023DBB21A46FB799A42B6D09B
:10207000002318461037BD4680BD80B584B000AF40
:10208000F860B9607A603B6051E0FB681B685B698F
:1020900003F48063B3F5806F23D1FB681B681A6873
:1020A000FB681B6842F400721A60FB681B686FF4DF
:1020B00080625A61FB6800221A63FB68202283F861
:1020C0003D20FB68002283F83E20FB681B6C43F038
:1020D0000402FB681A64FB68002283F83C20012399
:1020E00046E07B68B3F1FF3F21D0FFF729FA0246B3
:1020F0003B68D31A7A689A4202D37B68002B16D1C8
:10210000FB6800221A63FB68202283F83D20FB68ED
:10211000002283F83E20FB681B6C43F02002FB6822
:102120001A64FB68002283F83C20012320E0BB688E
:102130001B0CDBB2012B0CD1FB681B685B69DA431B
:10214000BB6813409BB2002B14BF01230023DBB2FA
:102150000BE0FB681B689B69DA43BB6813409BB2CA
:10216000002B14BF01230023DBB2002B8DD10023F1
:1021700018461037BD4680BD80B584B000AFF8600A
:10218000B9607A602DE0F86800F078F80346002B1B
:1021900001D001232DE0BB68B3F1FF3F21D0FFF751
:1021A000CFF902467B68D31ABA689A4202D3BB6859
:1021B000002B16D1FB6800221A63FB68202283F8EB
:1021C0003D20FB68002283F83E20FB681B6C43F037
:1021D0002002FB681A64FB68002283F83C2001237C
:1021E00007E0FB681B685B6903F08003802BCAD1A2
:1021F000002318461037BD4680BD80B584B000AFBF
:10220000F860B9607A602DE0F86800F037F80346AE
:10221000002B01D001232DE0BB68B3F1FF3F21D09B
:10222000FFF78EF902467B68D31ABA689A4202D346
:10223000BB68002B16D1FB6800221A63FB682022C2
:1022400083F83D20FB68002283F83E20FB681B6C6E
:1022500043F02002FB681A64FB68002283F83C20EC
:10226000012307E0FB681B685B6903F00403042B90
:10227000CAD1002318461037BD4680BD80B483B054
:1022800000AF78607B681B685B6903F48063B3F51B
:10229000806F1BD17B681B686FF480625A617B681A
:1022A00000221A637B68202283F83D207B6800228D
:1022B00083F83E207B681B6C43F004027B681A6441
:1022C0007B68002283F83C20012300E000231846AD
:1022D0000C37BD4680BC704780B586B000AF7860D3
:1022E0007B68002B01D101236CE27B681B6803F043
:1022F0000103002B00F08780924B5B6803F00C0316
:10230000042B0CD08F4B5B6803F00C03082B12D10D
:102310008C4B5B6803F48033B3F5803F0BD1894B62
:102320001B6803F40033002B6CD07B685B68002BC8
:1023300068D1012346E27B685B68B3F5803F06D134
:10234000804B1B687F4A43F4803313602EE07B6828
:102350005B68002B0CD17B4B1B687A4A23F48033DB
:102360001360784B1B68774A23F4802313601DE0C9
:102370007B685B68B3F5A02F0CD1724B1B68714A68
:1023800043F4802313606F4B1B686E4A43F4803321
:1023900013600BE06B4B1B686A4A23F480331360B5
:1023A000684B1B68674A23F4802313607B685B6873
:1023B000002B13D0FFF7C4F8386108E0FFF7C0F82E
:1023C00002463B69D31A642B01D90323FAE15D4B22
:1023D0001B6803F40033002BF0D014E0FFF7B0F8D3
:1023E000386108E0FFF7ACF802463B69D31A642B6A
:1023F00001D90323E6E1534B1B6803F40033002BA0
:10240000F0D100E000BF7B681B6803F00203002BE3
:1024100063D04C4B5B6803F00C03002B0BD0494B93
:102420005B6803F00C03082B1CD1464B5B6803F47C
:102430008033002B16D1434B1B6803F00203002BA3
:1024400005D07B681B69012B01D00123BAE13D4B0C
:102450001B6823F0F8027B685B69DB003949134392
:102460000B603AE07B681B69002B20D0364B0122C1
:102470001A60FFF765F8386108E0FFF761F8024677
:102480003B69D31A022B01D903239BE12D4B1B6817
:1024900003F00203002BF0D02A4B1B6823F0F80254
:1024A0007B685B69DB00274913430B6015E0264B13
:1024B00000221A60FFF744F8386108E0FFF740F89F
:1024C00002463B69D31A022B01D903237AE11D4B43
:1024D0001B6803F00203002BF0D17B681B6803F03C
:1024E0000803002B3AD07B689B69002B19D0174B4F
:1024F00001221A60FFF724F8386108E0FFF720F89E
:1025000002463B69D31A022B01D903235AE10D4B32
:102510005B6A03F00203002BF0D0012000F0C6FA42
:102520001CE00A4B00221A60FFF70AF838610FE03E
:10253000FFF706F802463B69D31A022B08D903239A
:1025400040E100BF001002400000424280044242CD
:102550009E4B5B6A03F00203002BE9D17B681B688A
:1025600003F00403002B00F0A6800023FB75974BBB
:10257000DB6903F08053002B0DD1944BDB69934A48
:1025800043F08053D361914BDB6903F08053BB6010
:10259000BB680123FB758E4B1B6803F48073002B13
:1025A00018D18B4B1B688A4A43F480731360FEF783
:1025B000C7FF386108E0FEF7C3FF02463B69D31A44
:1025C000642B01D90323FDE0814B1B6803F4807366
:1025D000002BF0D07B68DB68012B06D17B4B1B6A9C
:1025E0007A4A43F0010313622DE07B68DB68002B1D
:1025F0000CD1764B1B6A754A23F001031362734BAF
:102600001B6A724A23F0040313621CE07B68DB68D8
:10261000052B0CD16D4B1B6A6C4A43F0040313620B
:102620006A4B1B6A694A43F0010313620BE0674B74
:102630001B6A664A23F001031362644B1B6A634AF8
:1026400023F0040313627B68DB68002B15D0FEF7D0
:1026500077FF38610AE0FEF773FF02463B69D31A41
:1026600041F28832934201D90323ABE0574B1B6AF6
:1026700003F00203002BEED014E0FEF761FF386197
:102680000AE0FEF75DFF02463B69D31A41F2883249
:10269000934201D9032395E04C4B1B6A03F00203DC
:1026A000002BEED1FB7D012B05D1484BDB69474A5E
:1026B00023F08053D3617B68DB69002B00F08180BD
:1026C000424B5B6803F00C03082B61D07B68DB692D
:1026D000022B46D13F4B00221A60FEF731FF3861D2
:1026E00008E0FEF72DFF02463B69D31A022B01D901
:1026F000032367E0354B1B6803F00073002BF0D118
:102700007B681B6AB3F5803F08D1304B5B6823F4CC
:1027100000327B689B682D4913434B602B4B5B68F1
:1027200023F474127B68196A7B685B6A0B43274940
:1027300013434B60274B01221A60FEF701FF3861FB
:1027400008E0FEF7FDFE02463B69D31A022B01D9D1
:10275000032337E01D4B1B6803F00073002BF0D000
:102760002FE01C4B00221A60FEF7EAFE386108E0F9
:10277000FEF7E6FE02463B69D31A022B01D903237A
:1027800020E0124B1B6803F00073002BF0D118E01F
:102790007B68DB69012B01D1012313E00B4B5B68E4
:1027A000FB60FB6803F480327B681B6A9A4206D1A7
:1027B000FB6803F470127B685B6A9A4201D00123C4
:1027C00000E0002318461837BD4680BD00100240C7
:1027D000007000406000424280B584B000AF786075
:1027E00039607B68002B01D10123D0E06A4B1B6864
:1027F00003F007033A689A4210D9674B1B6823F02D
:10280000070265493B6813430B60634B1B6803F089
:1028100007033A689A4201D00123B8E07B681B683D
:1028200003F00203002B20D07B681B6803F0040335
:10283000002B05D0594B5B68584A43F4E063536062
:102840007B681B6803F00803002B05D0534B5B68C3
:10285000524A43F460535360504B5B6823F0F002DC
:102860007B689B684D4913434B607B681B6803F092
:102870000103002B40D07B685B68012B07D1474BDD
:102880001B6803F40033002B15D101237FE07B6824
:102890005B68022B07D1414B1B6803F00073002BD0
:1028A00009D1012373E03D4B1B6803F00203002BA9
:1028B00001D101236BE0394B5B6823F003027B6895
:1028C0005B68364913434B60FEF73AFEF8600AE056
:1028D000FEF736FE0246FB68D31A41F28832934275
:1028E00001D9032353E02D4B5B6803F00C027B6896
:1028F0005B689B009A42EBD1274B1B6803F00703F0
:102900003A689A4210D2244B1B6823F007022249EE
:102910003B6813430B60204B1B6803F007033A68C6
:102920009A4201D0012332E07B681B6803F0040364
:10293000002B08D0194B5B6823F4E0627B68DB68EE
:10294000164913434B607B681B6803F00803002B98
:1029500009D0124B5B6823F460527B681B69DB0073
:102960000E4913434B6000F021F801460B4B5B68A6
:102970001B0903F00F030A4AD35C21FA03F3094A47
:102980001360094B1B681846FEF798FD0023184694
:102990001037BD4680BD00BF00200240001002403D
:1029A000943E0008080000200C00002090B48AB07B
:1029B00000AF2A4B3C1D0FCB84E80F00284B1B882F
:1029C0003B800023FB610023BB6100237B6200236B
:1029D0007B6100233B62234B5B68FB61FB6903F077
:1029E0000C03042B02D0082B03D02DE01E4B3B62BE
:1029F0002DE0FB699B0C03F00F0307F12802134441
:102A000013F8243C7B61FB6903F48033002B13D063
:102A1000144B5B685B0C03F0010307F128021344BD
:102A200013F8283CBB617B690F4A02FB03F2BB69C8
:102A3000B2FBF3F37B6204E07B690C4A02FB03F315
:102A40007B627B6A3B6202E0074B3B6200BF3B6AF2
:102A500018462837BD4690BC704700BFA82F000815
:102A6000B82F00080010024000127A0000093D0053
:102A700080B400AF024B1B681846BD4680BC70474F
:102A80000800002080B500AFFFF7F2FF0146054BBC
:102A90005B681B0A03F00703034AD35C21FA03F3C4
:102AA000184680BD00100240A43E000880B485B0E6
:102AB00000AF78600A4B1B680A4AA2FB03235B0A3B
:102AC0007A6802FB03F3FB6000BFFB685A1EFA60E2
:102AD000002BF9D100BF1437BD4680BC704700BF42
:102AE00008000020D34D621080B582B000AF78603E
:102AF0007B68002B01D1012353E07B6800229A629E
:102B00007B6893F85130DBB2002B06D17B68002242
:102B100083F850207868FEF7F9FB7B68022283F87F
:102B200051207B681B681A687B681B6822F0400292
:102B30001A607B685A687B689B681A437B68DB680D
:102B40001A437B681B691A437B685B691A437B687D
:102B50009B6903F400731A437B68DB691A437B6843
:102B60001B6A42EA03017B689A6A7B681B680A4316
:102B70001A607B689B691A0C7B681B6802F0040270
:102B80005A607B681B68DA697B681B6822F4006204
:102B9000DA617B6800225A657B68012283F8512044
:102BA000002318460837BD4680BD80B588B000AF09
:102BB000F860B9603B601346FB800023FB77FB683D
:102BC00093F85030012B01D102231EE1FB68012252
:102BD00083F85020FEF7B4FCB861FB88FB82FB68E9
:102BE00093F85130DBB2012B02D00223FB7703E1D3
:102BF000BB68002B02D0FB88002B02D10123FB779E
:102C0000FAE0FB68032283F85120FB6800225A6532
:102C1000FB68BA681A63FB68FA889A86FB68FA88C8
:102C2000DA86FB6800229A63FB6800229A87FB68B9
:102C30000022DA87FB6800225A64FB6800221A64CB
:102C4000FB689B68B3F5004F07D1FB681B681A68E7
:102C5000FB681B6842F480421A60FB681B681B68B3
:102C600003F04003402B07D0FB681B681A68FB6821
:102C70001B6842F040021A60FB68DB68B3F5006F26
:102C80004BD1FB685B68002B02D0FB8A012B3ED145
:102C9000FB681B6B1A88FB681B68DA60FB681B6BA0
:102CA0009A1CFB681A63FB68DB8E9BB2013B9AB2ED
:102CB000FB68DA862BE0FB681B689B6803F0020365
:102CC000022B12D1FB681B6B1A88FB681B68DA6049
:102CD000FB681B6B9A1CFB681A63FB68DB8E9BB25C
:102CE000013B9AB2FB68DA8611E0FEF729FC024646
:102CF000BB69D31A3A689A4203D83B68B3F1FF3FE5
:102D000002D13B68002B02D10323FB7774E0FB6800
:102D1000DB8E9BB2002BCED14CE0FB685B68002BB6
:102D200002D0FB8A012B40D1FB681A6BFB681B6841
:102D30000C3312781A70FB681B6B5A1CFB681A6301
:102D4000FB68DB8E9BB2013B9AB2FB68DA862CE013
:102D5000FB681B689B6803F00203022B13D1FB681E
:102D60001A6BFB681B680C3312781A70FB681B6BBC
:102D70005A1CFB681A63FB68DB8E9BB2013B9AB25C
:102D8000FB68DA8611E0FEF7DBFB0246BB69D31A6B
:102D90003A689A4203D83B68B3F1FF3F02D13B68DF
:102DA000002B02D10323FB7726E0FB68DB8E9BB26E
:102DB000002BCDD1BA693968F86800F094F8034661
:102DC000002B02D0FB6820225A65FB689B68002B11
:102DD0000AD100233B61FB681B68DB683B61FB6831
:102DE0001B689B683B613B69FB685B6D002B02D0F5
:102DF0000123FB7700E000BFFB68012283F851202C
:102E0000FB68002283F85020FB7F18462037BD4620
:102E100080BD80B584B000AFF860B9603B601346F8
:102E2000FB714CE03B68B3F1FF3F48D0FEF788FBF5
:102E30000246BB69D31A3A689A4202D93B68002B12
:102E40003DD1FB681B685A68FB681B6822F0E002F2
:102E50005A60FB685B68B3F5827F11D1FB689B68A1
:102E6000B3F5004F04D0FB689B68B3F5806F07D1C2
:102E7000FB681B681A68FB681B6822F040021A6036
:102E8000FB689B6AB3F5005F0FD1FB681B681A688B
:102E9000FB681B6822F400521A60FB681B681A6802
:102EA000FB681B6842F400521A60FB68012283F839
:102EB0005120FB68002283F8502003230FE0FB68B9
:102EC0001B689A68BB681340BA689A420CBF01231A
:102ED0000023DBB21A46FB799A42A3D1002318469D
:102EE0001037BD4680BD80B586B002AFF860B960CE
:102EF0007A607B680093BB6800228021F868FFF746
:102F000088FF0346002B07D0FB685B6D43F020026F
:102F1000FB685A65032300E0002318461037BD46BE
:102F200080BD000070B500250C4E0D4CA41BA410F4
:102F3000A54209D100F022F800250A4E0A4CA41B34
:102F4000A410A54205D170BD56F82530984701352B
:102F5000EEE756F8253098470135F2E7AC3E000819
:102F6000AC3E0008AC3E0008B03E000803460244F8
:102F7000934200D1704703F8011BF9E7F8B500BF91
:102F8000F8BC08BC9E467047F8B500BFF8BC08BC4A
:042F90009E467047A2
:102F94002564000073616C616D20636865746F72F1
:102FA4006900000002030405060708090A0B0C0D5A
:102FB4000E0F1010010200000000000000000000CD
:102FC40000000000000000000000000000000000FD
:102FD40000000000000000000000000000000000ED
:102FE400001000000010000000100000001000009D
:102FF400001000000010000000000000001000009D
:10300400000000000000000000280000002800006C
:103014000028000000000000000000000000000084
:10302400000000000000000000000000000000009C
:103034000024000000240000007C000000240000A4
:1030440000480000007C0000004800000048000028
:1030540000000000000000000038000000540000E0
:10306400005000000038000000140000005400006C
:1030740000540000003800000010000000000000B0
:103084000020000000540000005800000030000040
:103094000028000000540000001400000008000094
:1030A40000000000000000000010000000280000E4
:1030B4000028000000100000003400000048000058
:1030C4000048000000340000000000000000000080
:1030D40000100000001000000010000000000000BC
:1030E40000000000000000000000000000000000DC
:1030F40000000000000000000008000000100000B4
:10310400002000000020000000200000002000003B
:103114000020000000200000001000000008000053
:10312400002000000010000000080000000800005B
:10313400000800000008000000080000000800006B
:103144000010000000200000001000000038000003
:103154000010000000280000000000000000000033
:10316400000000000000000000000000000000005B
:10317400000000000000000000100000001000002B
:10318400007C00000010000000100000000000009F
:10319400000000000000000000000000000000002B
:1031A400000000000000000000000000000000001B
:1031B40000000000001000000010000000100000DB
:1031C40000000000000000000000000000000000FB
:1031D40000000000003800000000000000000000B3
:1031E40000000000000000000000000000000000DB
:1031F40000000000000000000000000000000000CB
:1032040000000000001000000000000000000000AA
:10321400000800000008000000100000001000007A
:10322400001000000010000000200000002000003A
:10323400000000000000000000380000004400000E
:10324400004400000054000000440000004400005A
:1032540000440000003800000000000000000000EE
:1032640000100000003000000050000000100000BA
:10327400001000000010000000100000001000000A
:1032840000000000000000000038000000440000BE
:1032940000440000000400000008000000100000CA
:1032A40000200000007C000000000000000000007E
:1032B4000038000000440000000400000018000072
:1032C4000004000000040000004400000038000076
:1032D40000000000000000000008000000180000CA
:1032E400002800000028000000480000007C0000C6
:1032F40000080000000800000000000000000000BA
:10330400007C000000400000004000000078000045
:103314000004000000040000004400000038000025
:10332400000000000000000000380000004400001D
:103334000040000000780000004400000044000049
:1033440000440000003800000000000000000000FD
:10335400007C0000000400000008000000100000D1
:1033640000100000002000000020000000200000E9
:1033740000000000000000000038000000440000CD
:103384000044000000380000004400000044000035
:1033940000440000003800000000000000000000AD
:1033A4000038000000440000004400000044000015
:1033B400003C00000004000000440000003800004D
:1033C40000000000000000000000000000000000F9
:1033D40000100000000000000000000000000000D9
:1033E40000000000001000000000000000000000C9
:1033F40000000000000000000000000000100000B9
:1034040000000000000000000000000000100000A8
:103414000010000000100000000000000000000088
:10342400000C0000003000000040000000300000EC
:10343400000C00000000000000000000000000007C
:10344400000000000000000000000000007C0000FC
:1034540000000000007C00000000000000000000EC
:103464000000000000000000000000000000000058
:1034740000600000001800000004000000180000B4
:1034840000600000000000000000000000000000D8
:1034940000380000004400000004000000080000A0
:1034A40000100000001000000000000000100000E8
:1034B400000000000000000000380000004400008C
:1034C400004C000000540000005C000000400000BC
:1034D4000040000000380000000000000000000070
:1034E4000010000000280000002800000028000050
:1034F40000280000007C000000440000004400009C
:1035040000000000000000000078000000440000FB
:103514000044000000780000004400000044000063
:1035240000440000007800000000000000000000DB
:10353400003800000044000000400000004000008B
:10354400004000000040000000440000003800007B
:1035540000000000000000000070000000480000AF
:103564000044000000440000004400000044000047
:10357400004800000070000000000000000000008F
:10358400007C00000040000000400000007C0000BF
:10359400004000000040000000400000007C0000EB
:1035A4000000000000000000007C0000004000005B
:1035B40000400000007800000040000000400000CF
:1035C4000040000000400000000000000000000077
:1035D40000380000004400000040000000400000EB
:1035E400005C0000004400000044000000380000BB
:1035F400000000000000000000440000004400003F
:1036040000440000007C000000440000004400006E
:10361400004400000044000000000000000000001E
:10362400003800000010000000100000001000002E
:10363400001000000010000000100000003800001E
:10364400000000000000000000040000000400006E
:103654000004000000040000000400000004000056
:1036640000440000003800000000000000000000DA
:10367400004400000048000000500000006000000A
:103684000050000000480000004800000044000012
:1036940000000000000000000040000000400000A6
:1036A4000040000000400000004000000040000016
:1036B40000400000007C000000000000000000004A
:1036C40000440000006C0000006C00000054000086
:1036D40000440000004400000044000000440000D6
:1036E400000000000000000000440000006400002E
:1036F400006400000054000000540000004C00006E
:10370400004C000000440000000000000000000025
:1037140000380000004400000044000000440000A1
:103724000044000000440000004400000038000091
:1037340000000000000000000078000000440000C9
:103744000044000000440000007800000040000035
:1037540000400000004000000000000000000000E5
:103764000038000000440000004400000044000051
:103774000044000000440000005400000038000031
:103784000004000000000000007800000044000075
:1037940000440000004400000078000000480000DD
:1037A4000048000000440000000000000000000089
:1037B4000038000000440000004000000030000019
:1037C400000800000004000000440000003800006D
:1037D4000000000000000000007C00000010000059
:1037E4000010000000100000001000000010000095
:1037F40000100000001000000000000000000000A5
:1038040000440000004400000044000000440000A4
:1038140000440000004400000044000000380000A0
:10382400000000000000000000440000004400000C
:1038340000440000002800000028000000280000C8
:103844000010000000100000000000000000000054
:103854000044000000440000005400000054000034
:1038640000540000006C0000002800000028000044
:1038740000000000000000000044000000280000D8
:1038840000280000001000000010000000280000C4
:1038940000280000004400000000000000000000B8
:1038A400004400000044000000280000002800003C
:1038B40000100000001000000010000000100000C4
:1038C4000000000000000000007C00000004000074
:1038D400000800000010000000100000002000009C
:1038E40000400000007C0000000000000000000018
:1038F400001800000010000000100000001000007C
:103904000010000000100000001000000010000073
:10391400001000000018000000200000002000003B
:103924000010000000100000001000000010000053
:103934000008000000080000000000000000000073
:103944000030000000100000001000000010000013
:103954000010000000100000001000000010000023
:1039640000100000003000000010000000280000DB
:1039740000280000004400000000000000000000D7
:103984000000000000000000000000000000000033
:103994000000000000000000000000000000000023
:1039A4000000000000000000000000000000000013
:1039B4000000000000FE00000020000000100000D5
:1039C40000000000000000000000000000000000F3
:1039D40000000000000000000000000000000000E3
:1039E4000000000000000000003800000044000057
:1039F400003C000000440000004C000000340000C3
:103A04000000000000000000004000000040000032
:103A1400005800000064000000440000004400005E
:103A240000640000005800000000000000000000D6
:103A34000000000000000000003800000044000006
:103A44000040000000400000004400000038000076
:103A5400000000000000000000040000000400005A
:103A640000340000004C000000440000004400004A
:103A7400004C0000003400000000000000000000C2
:103A840000000000000000000038000000440000B6
:103A9400007C0000004000000044000000380000EA
:103AA4000000000000000000000C000000100000F6
:103AB400007C000000100000001000000010000056
:103AC40000100000001000000000000000000000D2
:103AD400000000000000000000340000004C000062
:103AE4000044000000440000004C000000340000CA
:103AF40000040000007800000040000000400000C6
:103B0400005800000064000000440000004400006D
:103B14000044000000440000000000000000000019
:103B24000010000000000000007000000010000001
:103B34000010000000100000001000000010000041
:103B44000000000000000000001000000000000061
:103B540000700000001000000010000000100000C1
:103B640000100000001000000010000000E0000041
:103B74000040000000400000004800000050000029
:103B840000600000005000000048000000440000F5
:103B940000000000000000000070000000100000A1
:103BA40000100000001000000010000000100000D1
:103BB40000100000001000000000000000000000E1
:103BC4000000000000000000007800000054000025
:103BD4000054000000540000005400000054000091
:103BE40000000000000000000000000000000000D1
:103BF400005800000064000000440000004400007D
:103C04000044000000440000000000000000000028
:103C14000000000000000000003800000044000024
:103C2400004400000044000000440000003800008C
:103C34000000000000000000000000000000000080
:103C4400005800000064000000440000004400002C
:103C54000064000000580000004000000040000024
:103C6400000000000000000000340000004C0000D0
:103C74000044000000440000004C00000034000038
:103C84000004000000040000000000000000000028
:103C940000580000006400000040000000400000E4
:103CA4000040000000400000000000000000000090
:103CB4000000000000000000003800000044000084
:103CC400003000000008000000440000003800003C
:103CD40000000000000000000020000000200000A0
:103CE40000780000002000000020000000200000F8
:103CF4000020000000180000000000000000000088
:103D04000000000000000000004400000044000027
:103D14000044000000440000004C00000034000097
:103D2400000000000000000000000000000000008F
:103D340000440000004400000028000000280000A7
:103D44000028000000100000000000000000000037
:103D540000000000000000000054000000540000B7
:103D640000540000006C000000280000002800003F
:103D7400000000000000000000000000000000003F
:103D840000440000002800000010000000100000A3
:103D940000280000004400000000000000000000B3
:103DA4000000000000000000004400000044000087
:103DB400002800000028000000100000001000008F
:103DC400001000000060000000000000000000007F
:103DD400007C00000008000000100000002000002B
:103DE40000400000007C0000000000000000000013
:103DF4000018000000100000001000000010000077
:103E0400002000000020000000100000001000004E
:103E14000010000000180000001000000010000056
:103E2400001000000010000000100000001000004E
:103E3400001000000010000000100000001000003E
:103E4400003000000010000000100000001000000E
:103E5400000800000008000000100000001000002E
:103E6400001000000030000000000000000000000E
:103E74000000000000740000004C0000000000007E
:103E8400000000000000000000000000000000002E
:103E940000000000000000000102030406070809F6
:083EA40000000000010203040C
:043EAC0035010008D4
:043EB00011010008F4
:103EB400070A0000BC2F00080024F40010000000D2
:043EC40001000000F9
:040000050800144596
:00000001FF
